:020000020000FC
:040000000C94B800A4
:040038000C944B00D9
:1000680032303235303331345F30316230310A006A
:10007800544553540A0053544154452049444C456F
:100088000A00535441544520554E4F0A00002FB6DC
:100098002F920F93009144020A950093440221F491
:1000A800F59A05E0009344020F912F902FBE189502
:1000B80005B110E8012705B9089500E804B900E181
:1000C80005B9089500E006BD02E004BD07E005BBE0
:1000D80002E000936E000DE707BD04E005BD08953A
:1000E800F598009145020A950093450209F0089594
:1000F8000AE000934502C0904702D0904802E09081
:100108004902F0904A0280904B0290904C02A090D5
:100118004D02B0904E028C209D20AE20BF20892831
:10012800AB288A2829F202C008952F988894F7945A
:10013800E794D794C79410F400E8F02EC0924702D1
:10014800D0924802E0924902F0924A020895009142
:100158002102A0E0B2E01127A00FB11F03950F7193
:10016800009321020C910895F8940FEF0DBF01E25E
:100178000EBF0E9461000E94660005E000934402E1
:100188000AE0009345020EBB7894F5990E9474002A
:100198000C94C9001091200200912102011711F05E
:1001A8000E94AB001091420200914302011709F42A
:0401B8000C94C900DA
:00000001FF
