:020000040800F2
:10000000000002203D0E0008910D0008990D000827
:10001000A10D0008A90D0008B10D000800000000A6
:10002000000000000000000000000000B90D000802
:10003000C70D000800000000D50D0008E30D000802
:100040008D0E00088D0E00088D0E00088D0E000824
:100050008D0E00088D0E00088D0E00088D0E000814
:100060008D0E00088D0E00088D0E0008F10D0008A1
:10007000050E00088D0E00088D0E00088D0E00087C
:100080008D0E00088D0E00088D0E00080000000087
:100090000000000000000000000000008D0E0008BD
:1000A0008D0E00088D0E00088D0E00088D0E0008C4
:1000B0008D0E00088D0E00088D0E00088D0E0008B4
:1000C0008D0E00088D0E00088D0E00088D0E0008A4
:1000D0008D0E00088D0E00088D0E00080000000037
:1000E0008D0E00088D0E00088D0E00080000000027
:1000F0000000000000000000000000008D0E00085D
:10010000000000008D0E00088D0E00088D0E000806
:1001100000000000000000000000000000000000DF
:100120008D0E00088D0E00088D0E00088D0E000843
:100130008D0E00080000000000000000000000001C
:100140000000000000000000000000008D0E00080C
:100150008D0E00088D0E00088D0E00088D0E000813
:100160008D0E00088D0E0008000000000000000049
:10017000000000000000000000000000000000007F
:10018000000000008D0E00080000000000000000CC
:080190008D0E00088D0E000821
:1001980010B5054C237833B9044B13B10448AFF3B9
:1001A80000800123237010BD0C0000200000000017
:1001B800342F000808B5034B1BB103490348AFF3BC
:1001C800008008BD0000000010000020342F000847
:1001D80053B94AB9002908BF00281CBF4FF0FF31A6
:1001E8004FF0FF3000F088B9ADF1080C6DE904CE8E
:1001F80000F006F8DDF804E0DDE9022304B07047FA
:100208002DE9F047089D8E4604468846002B4AD1C2
:100218008A42174662D9B2FA82F64EB1C6F1200375
:1002280001FA06F820FA03F3B74043EA0808B44095
:100238004FEA174E1FFA87FCB8FBFEF1230C0EFBA2
:10024800118843EA084301FB0CF29A4209D9FB18CA
:1002580001F1FF3080F0EA809A4240F2E7800239EB
:100268003B449A1AA3B2B2FBFEF00EFB102243EAFB
:10027800024300FB0CFC9C4509D9FB1800F1FF3236
:1002880080F0D6809C4540F2D3803B44023840EA57
:100298000140A3EB0C0300211DB1F3400022C5E986
:1002A8000032BDE8F0878B4205D90DB1C5E90001E0
:1002B80000210846F5E7B3FA83F1002946D17345D2
:1002C80002D3824200F20581841A6EEB03020120F8
:1002D8009046002DE5D0C5E90048E2E7002A00F085
:1002E8009080B2FA82F6002E40F0A4808A1A030C9D
:1002F8004FEA174E80B2BCB20121B2FBFEFC0EFBE6
:100308001C2243EA024304FB0CF29A4207D9FB1869
:100318000CF1FF3802D29A4200F2E080C4469B1AE0
:10032800B3FBFEF20EFB123340EA034302FB04F474
:100338009C4207D9FB1802F1FF3002D29C4200F21E
:10034800CA8002461B1B42EA0C40A5E7C1F1200601
:100358008B4022FA06F71F430EFA01F420FA06F33F
:100368002EFA06FE4FEA1749234300FA01F81FFA4E
:1003780087FCBEFBF9F01C0C09FB10EE44EA0E44A6
:1003880000FB0CFEA64502FA01F209D93C1900F15E
:10039800FF3A80F09C80A64540F2998002383C44A0
:1003A800A4EB0E041FFA83FEB4FBF9F309FB134414
:1003B8004EEA044403FB0CFCA44508D93C1903F19C
:1003C800FF3E80F08280A4457FD9023B3C4443EA4B
:1003D8000040A4EB0C04A0FB02EC64457346E14624
:1003E80062D35FD05DB1B8EB030264EB090404FA91
:1003F80006F622FA01F31E43CC40C5E90064002149
:100408004FE7B1FBF2FC010C41EA0E4180B240EA31
:1004180001423B4638463C46B846BE462026B1FB1C
:10042800F7F1A2EB080241EA0C4166E7014618E73A
:1004380010462CE7C6F120022EFA02F3B740B1406D
:1004480020FA02F24FEA174E0A43B3FBFEF8BCB299
:100458000EFB1833110C41EA034108FB04F9B040C4
:1004680089454FEA104380B23ED9791808F1FF3C1C
:1004780001D289451FD8A1EB0901B1FBFEF909FB9F
:1004880004F80EFB191192B242EA0142424529D200
:10049800BA1809F1FF31C4D24245C2D2A9F102010A
:1004A8003A44BEE7F0459DD2BEEB02036CEB070C65
:1004B8000138E14696E7A7EB09094944A8F1020C7F
:1004C800B1FBFEF909FB04F8DBE773467FE750460A
:1004D80066E70846FDE63B44023A33E7ACF1020C16
:1004E8003B441CE749469CE7A1EB0901C446B1FB24
:1004F800FEF909FB04F8C4E7704700BF80B582B075
:1005080002AF00F0C1FC00F021F800F0D3F800F0D1
:10051800A9F800F079F800F055F900F0BDFA00F0FC
:10052800BBFA01230193402300938023064A00214C
:10053800002000F0DFF800F009FA4FF4FA6000F04C
:1005480015FD00BFEBE700BF4C2F000880B594B045
:1005580000AF07F1200330220021184602F0BAFC50
:1005680007F10C0300221A605A609A60DA601A6177
:100578000023BB60224B1B6C214A43F08053136459
:100588001F4B1B6C03F08053BB60BB6800237B6070
:100598001C4B1B681B4A43F440431360194B1B68F0
:1005A80003F440437B607B6802233B620123FB62C8
:1005B80010233B630023BB6307F12003184602F0B6
:1005C80045F80346002B01D000F08EF80F23FB609E
:1005D80000233B6100237B610023BB610023FB6197
:1005E80007F10C030021184602F0A8FA0346002B75
:1005F80001D000F079F800BF5037BD4680BD00BF7C
:10060800003802400070004080B500AF124B134A1A
:100618001A60114B124A5A600F4B00229A600E4B17
:100628000022DA600C4B4FF480421A610A4B002218
:100638005A61094B00229A61074B0022DA61064B86
:1006480000221A62044801F035FA0346002B01D053
:1006580000F04AF800BF80BD280000200054004088
:10066800801A060080B582B000AF00237B60104B73
:100678001B6B0F4A43F4001313630D4B1B6B03F4FE
:1006880000137B607B68002200210B2000F06DFDC9
:100698000B2000F086FD002200210C2000F065FDF3
:1006A8000C2000F07EFD00BF0837BD4680BD00BFAE
:1006B8000038024080B483B000AF00237B60094B50
:1006C8001B6B084A43F002031363064B1B6B03F0D2
:1006D80002037B607B6800BF0C37BD465DF8047B76
:1006E800704700BF0038024080B400AF72B600BF48
:1006F80000BFFDE780B586B000AFBA601A46034672
:10070800FB810B46BB811346FB80B7F906300733E4
:10071800002B00DA0733DB103B820023FB75002334
:10072800BB8244E000237B822FE07B8A03F007032F
:10073800002B03D0FB7D5B00FB7512E0B7F914308A
:10074800B7F9102003FB02F2B7F91230002B00DAD8
:100758000733DB101BB213441A46BB6813441B78DB
:10076800FB7597F91730002B09DAFA897B8A13444D
:100778009BB2B989BA8CD2B2184600F02DF9B7F9F4
:1007880012309BB201339BB27B82B7F91220B7F9C2
:1007980006309A42C9DBB7F914309BB201339BB2D9
:1007A800BB82B7F90C309BB201339BB2BB81B7F95E
:1007B8001420B7F920309A42B4DB00BF00BF1837C5
:1007C800BD4680BD80B582B000AF00F06FF944F639
:1007D8002063012278215B4801F0AEFB0346002B21
:1007E80001D00023A9E040F6C4137B6002E07B68D7
:1007F800013B7B607B68002BF9D1AE220021782079
:1008080000F0D0F920220021782000F0CBF9102246
:100818000021782000F0C6F9B0220021782000F0ED
:10082800C1F9C8220021782000F0BCF9002200217B
:10083800782000F0B7F910220021782000F0B2F9F2
:1008480040220021782000F0ADF981220021782093
:1008580000F0A8F9FF220021782000F0A3F9A122D6
:100868000021782000F09EF9A6220021782000F0CF
:1008780099F9A8220021782000F094F93F2200215C
:10088800782000F08FF9A4220021782000F08AF95E
:10089800D3220021782000F085F900220021782059
:1008A80000F080F9D5220021782000F07BF9F022B1
:1008B8000021782000F076F9D9220021782000F074
:1008C80071F922220021782000F06CF9DA22002147
:1008D800782000F067F912220021782000F062F9F0
:1008E800DB220021782000F05DF920220021782009
:1008F80000F058F98D220021782000F053F91422D5
:100908000021782000F04EF9AF220021782000F075
:1009180049F92E220021782000F044F9002000F047
:1009280043F800F013F8084B00221A80064B002207
:100938005A80054B01225A71012318460837BD46D3
:1009480080BD00BF280000203C05002080B582B093
:1009580000AF0023FB711DE0FB79503BDBB21A4668
:100968000021782000F01EF900220021782000F0F4
:1009780019F910220021782000F014F9FB79DB0125
:10098800084A1A4480234021782000F0A5F8FB7912
:100998000133FB71FB79072BDED900BF00BF083795
:1009A800BD4680BD3C01002080B582B000AF034643
:1009B800FB71FB79002B01D1002300E0FF234FF4EA
:1009C80080621946034802F085FA00BF0837BD4621
:1009D80080BD00BF3C01002080B483B000AF034657
:1009E800FB800B46BB801346FB70FB887F2B48D8E7
:1009F800BB883F2B45D8264B1B79002B06D0FB78AC
:100A0800002B0CBF01230023DBB2FB70FB78012B0A
:100A18001AD1FA88BB88DB0898B20346DB01134475
:100A28001C4AD35C5AB2BB8803F00703012101FAC0
:100A380003F35BB2134359B2FA880346DB0113444C
:100A4800C9B2144AD1541DE0FA88BB88DB0898B2B1
:100A58000346DB0113440F4AD35C5AB2BB8803F048
:100A68000703012101FA03F35BB2DB435BB21340D6
:100A780059B2FA880346DB011344C9B2054AD15476
:100A880000E000BF0C37BD465DF8047B704700BF2F
:100A98003C0500203C01002080B500AF0020FFF796
:100AA80083FFFFF753FF00BF80BD000080B483B011
:100AB80000AF084B7B6002E07B68013B7B607B6892
:100AC800002BF9D100BF00BF0C37BD465DF8047B91
:100AD800704700BF90D0030090B5C7B002AF04467E
:100AE800084607F58871A1F588710A60194607F567
:100AF8008873A3F2091322461A7007F58873A3F5C1
:100B0800857302461A7007F58873A3F586730A463B
:100B18001A8007F58873A3F5827307F58872A2F522
:100B2800857212781A70002387F80F3115E097F84C
:100B38000F3107F58872A2F5887212681A4497F87F
:100B48000F310133117807F58872A2F58272D154FA
:100B580097F80F31013387F80F3197F80F319BB2AF
:100B680007F58872A2F5867212889A42DFD807F5CF
:100B78008873A3F209131B7899B207F58873A3F554
:100B880086731B8801339BB207F10C020A20009080
:100B9800034801F0D3F800BF07F58A77BD4690BD3A
:100BA8002800002080B586B002AF0346FB710B46D3
:100BB800BB7113467B71BB793B737B797B73FB7984
:100BC80099B207F10C020A2300930223034801F0AB
:100BD800B5F800BF1037BD4680BD00BF2800002013
:100BE80080B483B000AF00237B60104B5B6C0F4A6E
:100BF80043F4804353640D4B5B6C03F480437B6088
:100C08007B6800233B60094B1B6C084A43F0805308
:100C18001364064B1B6C03F080533B603B6800BFBA
:100C28000C37BD465DF8047B704700BF00380240B2
:100C380080B58AB000AF786007F1140300221A600B
:100C48005A609A60DA601A617B681B68474A934267
:100C580040F0878000233B61454B1B6B444A43F0BF
:100C680002031363424B1B6B03F002033B613B69B6
:100C7800C0237B611223BB610023FB6103233B621A
:100C880004237B6207F1140319463A4800F08EFDED
:100C98000023FB60364B1B6C354A43F40013136486
:100CA800334B1B6C03F40013FB60FB68324B334A75
:100CB8001A60314B4FF000725A602F4B00229A6035
:100CC8002D4B0022DA602C4B4FF480621A612A4BBC
:100CD80000225A61284B00229A61274B0022DA61D0
:100CE800254B00221A62244B00225A62224800F047
:100CF80073FA0346002B01D0FFF7F6FC7B681E4A07
:100D08009A631D4A7B6893631D4B1E4A1A601C4BED
:100D180000225A601A4B40229A60194B0022DA606E
:100D2800174B4FF480621A61154B00225A61144B1D
:100D380000229A61124B0022DA61114B00221A62DA
:100D48000F4B00225A620E4800F046FA0346002B69
:100D580001D0FFF7C9FC7B68094A5A63084A7B68D7
:100D6800936300BF2837BD4680BD00BF00540040D4
:100D780000380240000402407C000020106002405D
:100D8800DC0000202860024080B400AF00BFFDE70F
:100D980080B400AF00BFFDE780B400AF00BFFDE73F
:100DA80080B400AF00BFFDE780B400AF00BFFDE72F
:100DB80080B400AF00BFBD465DF8047B704780B4C7
:100DC80000AF00BFBD465DF8047B704780B400AF3C
:100DD80000BFBD465DF8047B704780B500AF00F0EA
:100DE800A5F800BF80BD000080B500AF024800F044
:100DF800A1FA00BF80BD00BF7C00002080B500AF15
:100E0800024800F097FA00BF80BD00BFDC00002058
:100E180080B400AF064BD3F88830054A43F470031A
:100E2800C2F8883000BFBD465DF8047B704700BF3C
:100E380000ED00E0DFF834D0FFF7EAFF0C480D4979
:100E48000D4A002302E0D458C4500433C4188C421D
:100E5800F9D30A4A0A4C002301E013600432A24283
:100E6800FBD302F03FF8FFF749FB70470000022070
:100E7800000000200C0000207C3300080C0000203B
:100E880048050020FEE7000080B500AF0E4B1B6848
:100E98000D4A43F4007313600B4B1B680A4A43F472
:100EA80080631360084B1B68074A43F48073136020
:100EB800032000F04FF90F2000F008F8FFF790FE2C
:100EC8000023184680BD00BF003C024080B582B0B8
:100ED80000AF7860124B1A68124B1B7819464FF412
:100EE8007A73B3FBF1F3B2FBF3F3184600F067F93A
:100EF8000346002B01D001230EE07B680F2B0AD894
:100F0800002279684FF0FF3000F02FF9064A7B681D
:100F18001360002300E0012318460837BD4680BD52
:100F280000000020080000200400002080B400AF6A
:100F3800064B1B781A46064B1B681344044A136079
:100F480000BFBD465DF8047B704700BF0800002065
:100F58004405002080B400AF034B1B681846BD460B
:100F68005DF8047B704700BF4405002080B584B05D
:100F780000AF7860FFF7EEFFB8607B68FB60FB6846
:100F8800B3F1FF3F05D00A4B1B781A46FB681344A0
:100F9800FB6000BFFFF7DEFF0246BB68D31AFA68A2
:100FA8009A42F7D800BF00BF1037BD4680BD00BFCA
:100FB8000800002080B485B000AF78607B6803F03B
:100FC8000703FB600C4BDB68BB60BA684FF6FF0396
:100FD8001340BB60FB681A02BB68134343F0BF634E
:100FE80043F40033BB60044ABB68D36000BF1437C6
:100FF800BD465DF8047B704700ED00E080B400AFAB
:10100800044BDB681B0A03F007031846BD465DF86E
:10101800047B704700ED00E080B483B000AF034666
:10102800FB7197F90730002B0BDBFB7903F01F02EC
:10103800074997F907305B09012000FA02F241F8E5
:10104800232000BF0C37BD465DF8047B704700BF06
:1010580000E100E080B483B000AF03463960FB7163
:1010680097F90730002B0ADB3B68DAB20C4997F98D
:1010780007301201D2B20B4483F800230AE03B6820
:10108800DAB20849FB7903F00F03043B1201D2B22C
:101098000B441A7600BF0C37BD465DF8047B7047D9
:1010A80000E100E000ED00E080B489B000AFF86036
:1010B800B9607A60FB6803F00703FB61FB69C3F161
:1010C8000703042B28BF0423BB61FB690433062BE9
:1010D80002D9FB69033B00E000237B614FF0FF323C
:1010E800BB6902FA03F3DA43BB681A407B699A408A
:1010F8004FF0FF317B6901FA03F3D9437B680B405A
:10110800134318462437BD465DF8047B704700003A
:1011180080B582B000AF78607B68013BB3F1807F17
:1011280001D301230FE00A4A7B68013B53600F217A
:101138004FF0FF30FFF78EFF054B00229A60044BFB
:1011480007221A60002318460837BD4680BD00BF35
:1011580010E000E080B582B000AF78607868FFF7F3
:1011680029FF00BF0837BD4680BD80B586B000AFF7
:101178000346B9607A60FB7300237B61FFF73EFF8B
:1011880078617A68B9687869FFF78EFF024697F93F
:101198000F3011461846FFF75DFF00BF1837BD46F0
:1011A80080BD80B582B000AF0346FB7197F9073068
:1011B8001846FFF731FF00BF0837BD4680BD80B530
:1011C80082B000AF78607868FFF7A2FF0346184640
:1011D8000837BD4680BD000080B586B000AF786096
:1011E80000237B61FFF7B6FE38617B68002B01D1D5
:1011F800012399E07B68022283F835207B6800226E
:1012080083F834207B681B681A687B681B6822F0A7
:1012180001021A600FE0FFF79DFE02463B69D31AF0
:10122800052B08D97B6820225A657B68032283F83E
:101238003520032378E07B681B681B6803F00103F3
:10124800002BE8D17B681B681B687B617A69384B87
:1012580013407B617B685A687B689B681A437B688C
:10126800DB681A437B681B691A437B685B691A430E
:101278007B689B691A437B68DB691A437B681B6A36
:1012880013437A6913437B617B685B6A042B07D13C
:101298007B68DA6A7B681B6B13437A6913437B614B
:1012A8007B681B687A691A607B681B685B697B616D
:1012B8007B6923F007037B617B685B6A7A69134368
:1012C8007B617B685B6A042B17D17B689B6A7A69B0
:1012D80013437B617B68DB6A002B0ED0786800F0D3
:1012E800E9F90346002B08D07B6840225A657B68E1
:1012F800012283F83520012316E07B681B687A6990
:101308005A61786800F0A0F90346FB607B68DB6DE2
:101318003F229A40FB689A607B6800225A657B6886
:10132800012283F83520002318461837BD4680BDB2
:101338003F8010F080B586B000AF78600023BB60B6
:101348008E4B1B688E4AA2FB03239B0A7B617B683A
:101358009B6D3B613B691B68FB607B68DB6D08220A
:101368009A40FB681340002B1AD07B681B681B68E7
:1013780003F00403002B13D07B681B681A687B6892
:101388001B6822F004021A607B68DB6D08229A4011
:101398003B699A607B685B6D43F001027B685A6524
:1013A8007B68DB6D01229A40FB681340002B12D04A
:1013B8007B681B685B6903F08003002B0BD07B689C
:1013C800DB6D01229A403B699A607B685B6D43F054
:1013D80002027B685A657B68DB6D04229A40FB68D1
:1013E8001340002B12D07B681B681B6803F00203B4
:1013F800002B0BD07B68DB6D04229A403B699A6016
:101408007B685B6D43F004027B685A657B68DB6D23
:1014180010229A40FB681340002B43D07B681B685E
:101428001B6803F00803002B3CD07B68DB6D10229F
:101438009A403B699A607B681B681B6803F48023A9
:10144800002B18D07B681B681B6803F40023002B53
:1014580008D17B681B6C002B24D07B681B6C7868D8
:1014680098471FE07B689B6C002B1BD07B689B6CAC
:101478007868984716E07B681B681B6803F48073DC
:10148800002B07D17B681B681A687B681B6822F0F1
:1014980008021A607B681B6C002B03D07B681B6CEE
:1014A800786898477B68DB6D20229A40FB68134078
:1014B800002B00F08F807B681B681B6803F010030B
:1014C800002B00F087807B68DB6D20229A403B6907
:1014D8009A607B6893F83530DBB2052B36D17B6890
:1014E8001B681A687B681B6822F016021A607B6802
:1014F8001B685A697B681B6822F080025A617B6806
:101508001B6C002B03D17B689B6C002B07D07B687E
:101518001B681A687B681B6822F008021A607B68DF
:10152800DB6D3F229A403B699A607B68012283F811
:1015380035207B68002283F834207B681B6D002BE4
:101548007ED07B681B6D7868984779E07B681B685C
:101558001B6803F48023002B1DD07B681B681B6865
:1015680003F40023002B0DD17B685B6C002B31D07A
:101578007B685B6C786898472CE000BF000000200F
:10158800B5814E1B7B68DB6B002B23D07B68DB6B44
:10159800786898471EE07B681B681B6803F48073B3
:1015A800002B0FD17B681B681A687B681B6822F0C8
:1015B80010021A607B68012283F835207B680022BC
:1015C80083F834207B68DB6B002B03D07B68DB6BF4
:1015D800786898477B685B6D002B32D07B685B6DC1
:1015E80003F00103002B22D07B68052283F8352005
:1015F8007B681B681A687B681B6822F001021A6006
:10160800BB680133BB607A699A4207D37B681B6861
:101618001B6803F00103002BF2D100E000BF7B68D8
:10162800012283F835207B68002283F834207B6808
:10163800DB6C002B05D07B68DB6C7868984700E092
:1016480000BF1837BD4680BD80B485B000AF786054
:101658007B681B68DBB2103B144AA2FB03231B09FF
:10166800FB60134AFB6813441B781A467B68DA65EB
:10167800FB68032B09D97B681B6823F47F7323F06D
:1016880003031A1D7B689A6507E07B681B6823F4CF
:101698007F7323F003037A6893657B689B6D184614
:1016A8001437BD465DF8047B704700BFABAAAAAAF1
:1016B8006433000880B485B000AF78600023FB7302
:1016C8007B689B6ABB607B689B69002B1FD1BB68EA
:1016D800032B56D801A252F823F000BFF5160008D4
:1016E80007170008F51600088B1700087B68DB6AE7
:1016F80003F08073002B46D00123FB7343E07B6823
:10170800DB6AB3F1C07F40D10123FB733DE07B6806
:101718009B69B3F5005F21D1BB68032B37D801A2C1
:1017280052F823F03D170008431700083D1700083A
:10173800551700080123FB7330E07B68DB6A03F070
:101748008073002B25D00123FB7322E07B68DB6AC2
:10175800B3F1C07F1FD10123FB731CE0BB68022BD0
:1017680003D9BB68032B03D018E00123FB7315E0F2
:101778007B68DB6A03F08073002B0ED00123FB73B8
:101788000BE000BF0AE000BF08E000BF06E000BFB2
:1017980004E000BF02E000BF00E000BFFB7B18468A
:1017A8001437BD465DF8047B704700BF80B489B02C
:1017B80000AF7860396000237B6100233B61002320
:1017C800BB610023FB6159E10122FB6902FA03F3C3
:1017D8007B613B681B687A6913403B613A697B69A6
:1017E8009A4240F048813B685B6803F00303012B91
:1017F80005D03B685B6803F00303022B30D17B689C
:101808009B68BB61FB695B00032202FA03F3DB43BD
:10181800BA691340BB613B68DA68FB695B0002FA8E
:1018280003F3BA691343BB617B68BA699A607B6842
:101838005B68BB610122FB6902FA03F3DB43BA6907
:101848001340BB613B685B681B0903F00102FB693D
:1018580002FA03F3BA691343BB617B68BA695A6039
:101868003B685B6803F00303032B17D07B68DB68D6
:10187800BB61FB695B00032202FA03F3DB43BA692D
:101888001340BB613B689A68FB695B0002FA03F38B
:10189800BA691343BB617B68BA69DA603B685B6805
:1018A80003F00303022B23D1FB69DA087B680832B3
:1018B80053F82230BB61FB6903F007039B000F223A
:1018C80002FA03F3DB43BA691340BB613B681A6948
:1018D800FB6903F007039B0002FA03F3BA69134399
:1018E800BB61FB69DA087B680832B96943F82210E2
:1018F8007B681B68BB61FB695B00032202FA03F388
:10190800DB43BA691340BB613B685B6803F00302C1
:10191800FB695B0002FA03F3BA691343BB617B6896
:10192800BA691A603B685B6803F44033002B00F027
:10193800A2800023FB60574B5B6C564A43F48043FC
:101948005364544B5B6C03F48043FB60FB68524A5E
:10195800FB699B08023352F82330BB61FB6903F033
:1019680003039B000F2202FA03F3DB43BA69134017
:10197800BB617B68494A934219D07B68484A9342C5
:1019880013D07B68474A93420DD07B68464A9342FE
:1019980007D07B68454A934201D1042308E0072316
:1019A80006E0032304E0022302E0012300E0002311
:1019B800FA6902F0030292009340BA691343BB61CB
:1019C8003549FB699B080233BA6941F82320384B33
:1019D8009B68BB613B69DB43BA691340BB613B68E9
:1019E8005B6803F48013002B03D0BA693B69134387
:1019F800BB612F4ABB6993602D4BDB68BB613B69B8
:101A0800DB43BA691340BB613B685B6803F40013AE
:101A1800002B03D0BA693B691343BB61244ABB69F5
:101A2800D360234B5B68BB613B69DB43BA691340F6
:101A3800BB613B685B6803F40033002B03D0BA69D1
:101A48003B691343BB611A4ABB695360184B1B6857
:101A5800BB613B69DB43BA691340BB613B685B68A8
:101A680003F48033002B03D0BA693B691343BB618D
:101A78000F4ABB691360FB690133FB61FB690F2BDC
:101A88007FF6A2AE00BF00BF2437BD465DF8047BD9
:101A9800704700BF00380240003801400000024093
:101AA8000004024000080240000C024000100240FE
:101AB800003C014080B584B000AF78607B68002BA3
:101AC80001D101232BE17B6893F83D30DBB2002B79
:101AD80006D17B68002283F83C207868FFF7A8F8D5
:101AE8007B68242283F83D207B681B681A687B6822
:101AF8001B6822F001021A607B681B681A687B6801
:101B08001B6842F400421A607B681B681A687B688D
:101B18001B6822F400421A6001F0C8F9F8607B687B
:101B28005B68814A934207D8FB68804A934294BF16
:101B380001230023DBB206E0FB687D4A934294BF91
:101B480001230023DBB2002B01D00123E7E0FB686F
:101B5800784AA2FB03239B0CBB607B681B685B680D
:101B680023F03F017B681B68BA680A435A607B68A8
:101B78001B681B6A23F03F017B685B686A4A9342D3
:101B880002D8BB68013309E0BB684FF4967202FBC8
:101B980003F3694AA2FB03239B0901337A6812689D
:101BA8000B4313627B681B68DB6923F44F4222F006
:101BB800FF027B685B685C498B4219D8FB68591E39
:101BC8007B685B685B00B1FBF3F3591C40F6FC7360
:101BD8000B40002B0AD0FB68591E7B685B685B00D2
:101BE800B1FBF3F30133C3F30B0351E004234FE0DC
:101BF8007B689B68002B11D1FB68581E7B6859686D
:101C08000B465B000B44B0FBF3F30133C3F30B0348
:101C1800002B0CBF01230023DBB212E0FB68581E27
:101C28007B6859680B469B000B4499000B44B0FB3A
:101C3800F3F30133C3F30B03002B0CBF0123002381
:101C4800DBB2002B01D0012322E07B689B68002BCC
:101C58000ED1FB68581E7B6859680B465B000B4425
:101C6800B0FBF3F30133C3F30B0343F400430FE07A
:101C7800FB68581E7B6859680B469B000B4499000B
:101C88000B44B0FBF3F30133C3F30B0343F44043BA
:101C9800796809681343CB617B681B681B6823F06C
:101CA800C0017B68DA697B681B6A1A437B681B681A
:101CB8000A431A607B681B689B6823F4034323F07C
:101CC800FF037A6811697A68D26811437A681268E2
:101CD8000B4393607B681B68DB6823F0FF017B681C
:101CE8005A697B689B691A437B681B680A43DA60F8
:101CF8007B681B681A687B681B6842F001021A60DF
:101D08007B6800221A647B68202283F83D207B6868
:101D180000221A637B68002283F83E2000231846BD
:101D28001037BD4680BD00BFA08601007F841E001D
:101D3800FF083D0083DE1B43D34D621080B588B099
:101D480002AFF8607A601A460B467B8113463B81E6
:101D5800FFF700F97861FB6893F83D30DBB2202B80
:101D680040F0E0807B690093192301227049F868EC
:101D780000F092FA0346002B01D00223D3E0FB685F
:101D880093F83C30012B01D10223CCE0FB680122FF
:101D980083F83C20FB681B681B6803F00103012BD8
:101DA80007D0FB681B681A68FB681B6842F00102D1
:101DB8001A60FB681B681A68FB681B6822F40062DB
:101DC8001A60FB68212283F83D20FB68102283F803
:101DD8003E20FB6800221A64FB687A685A62FB6836
:101DE8003A895A85FB685B8D9AB2FB681A85FB684D
:101DF800504ADA6279897B693A6AF86800F0CAF968
:101E08000346002B01D001238DE000233B61FB68D2
:101E18001B685B693B61FB681B689B693B613B69AD
:101E280066E07A69396AF86800F050FB0346002BCF
:101E38000DD0FB681B6C042B07D1FB681B681A6864
:101E4800FB681B6842F400721A6001236BE0FB68B0
:101E58005B6A1A78FB681B681A61FB685B6A5A1C24
:101E6800FB685A62FB685B8D9BB2013B9AB2FB68C8
:101E78005A85FB681B8D013B9AB2FB681A85FB6883
:101E88001B685B6903F00403042B1BD1FB681B8DE3
:101E9800002B17D0FB685B6A1A78FB681B681A610D
:101EA800FB685B6A5A1CFB685A62FB685B8D9BB2D5
:101EB800013B9AB2FB685A85FB681B8D013B9AB2BD
:101EC800FB681A857A69396AF86800F047FB0346A7
:101ED800002B0DD0FB681B6C042B07D1FB681B681B
:101EE8001A68FB681B6842F400721A6001231AE042
:101EF800FB681B8D002B94D1FB681B681A68FB6874
:101F08001B6842F400721A60FB68202283F83D20A7
:101F1800FB68002283F83E20FB68002283F83C20FF
:101F2800002300E0022318461837BD4680BD00BFD5
:101F3800020010000000FFFF80B58AB002AFF86011
:101F48007A603B600B467B81FFF704F8F861002359
:101F5800BB61FB6893F83D30DBB2202B40F0118168
:101F6800FB690093192301228849F86800F094F965
:101F78000346002B01D0022304E1FB6893F83C30B0
:101F8800012B01D10223FDE0FB68012283F83C20EC
:101F9800FB681B681B6803F00103012B07D0FB6873
:101FA8001B681A68FB681B6842F001021A60FB682C
:101FB8001B681A68FB681B6822F400621A60FB68D9
:101FC800242283F83D20FB6800221A64FB68704ACB
:101FD800DA62FB681B681A68FB681B6842F4807247
:101FE8001A60FB6900933B6800224FF00111F86802
:101FF80000F052F90346002B0DD0FB681B681B68E4
:1020080003F48073B3F5807F03D1FB684FF400724B
:102018001A640323B6E07B89DBB21A46FB681B68A7
:1020280002F0FE021A61FEF795FFF861FB681B6873
:102038005B6903F00203022B0CBF01230023DBB210
:10204800FB75FB681B685B6903F48063B3F5806FFD
:102058000CBF01230023DBB2BB7525E0FEF77AFF36
:102068000246FB69D31A3A689A4202D33B68002BAE
:1020780003D1FB68A02283F83D20FB681B685B69DD
:1020880003F00203022B0CBF01230023DBB2FB7514
:10209800FB681B685B6903F48063B3F5806F0CBF52
:1020A80001230023DBB2BB75FB6893F83D30DBB23C
:1020B800A02B05D0FB7D002B02D1BB7D002BCDD002
:1020C800FB68202283F83D20FB681B685B6903F0EE
:1020D8000203022B29D1FB681B681A68FB681B687E
:1020E80042F400721A6000233B61FB681B685B695D
:1020F8003B61FB681B689B693B613B69FB6900931B
:10210800192301222149F86800F0C6F80346002B7C
:1021180001D0012336E0FB68202283F83D20FB68CC
:10212800002283F83C2000232CE0FB681B681A6817
:10213800FB681B6842F400721A60FB681B686FF446
:1021480080625A61FB690093192301220F49F868DC
:1021580000F0A2F80346002B01D0012312E0BB696E
:102168000133BB61BA697B689A42FFF432AFFB68FE
:10217800202283F83D20FB68002283F83C200123BD
:1021880000E0022318462037BD4680BD020010003B
:102198000000FFFF80B588B002AFF8607A603B604E
:1021A8000B467B81FB68DB6A7B617B69082B06D069
:1021B8007B69012B03D07B6913F5803F08D1FB684D
:1021C8001B681A68FB681B6842F480721A600BE08F
:1021D800FB681B6B122B07D1FB681B681A68FB682E
:1021E8001B6842F480721A603B6800937B68002287
:1021F8004FF00111F86800F04FF80346002B0DD09E
:10220800FB681B681B6803F48073B3F5807F03D1F8
:10221800FB684FF400721A64032335E0FB681B69FE
:10222800B3F5804F08D17B89DBB21A46FB681B687F
:1022380002F0FE021A611BE07B89DB11DBB203F0BE
:102248000603DBB263F00F03DAB2FB681B681A619E
:102258003B687A680E49F86800F098F80346002B46
:1022680001D0012310E07B89DAB2FB681B681A6190
:102278003B687A680749F86800F088F80346002B3D
:1022880001D0012300E0002318461837BD4680BD61
:10229800080001000200010080B584B000AFF860BA
:1022A800B9603B601346FB7148E03B68B3F1FF3F00
:1022B80044D0FEF74FFE0246BB69D31A3A689A42E9
:1022C80002D33B68002B39D1BB681B0CDBB2012B56
:1022D8000DD1FB681B685B69DA43BB6813409BB28E
:1022E800002B0CBF01230023DBB21A460CE0FB686D
:1022F8001B689B69DA43BB6813409BB2002B0CBF79
:1023080001230023DBB21A46FB799A4216D1FB68F7
:1023180000221A63FB68202283F83D20FB68002214
:1023280083F83E20FB681B6C43F02002FB681A64AC
:10233800FB68002283F83C20012323E0BB681B0CC8
:10234800DBB2012B0DD1FB681B685B69DA43BB6804
:1023580013409BB2002B0CBF01230023DBB21A46AB
:102368000CE0FB681B689B69DA43BB6813409BB2AF
:10237800002B0CBF01230023DBB21A46FB799A42DB
:1023880093D0002318461037BD4680BD80B584B071
:1023980000AFF860B9607A603B6071E0FB681B6869
:1023A8005B6903F48063B3F5806F23D1FB681B6816
:1023B8001A68FB681B6842F400721A60FB681B68A5
:1023C8006FF480625A61FB6800221A63FB6820225E
:1023D80083F83D20FB68002283F83E20FB681B6CD5
:1023E80043F00402FB681A64FB68002283F83C206F
:1023F800012367E07B68B3F1FF3F41D0FEF7AAFDF8
:1024080002463B68D31A7A689A4202D37B68002B4B
:1024180036D1BB681B0CDBB2012B0CD1FB681B68E7
:102428005B69DA43BB6813409BB2002B14BF0123DE
:102438000023DBB20BE0FB681B689B69DA43BB68CF
:1024480013409BB2002B14BF01230023DBB2002BE7
:1024580016D0FB6800221A63FB68202283F83D200F
:10246800FB68002283F83E20FB681B6C43F02002C7
:10247800FB681A64FB68002283F83C20012321E0F2
:10248800BB681B0CDBB2012B0CD1FB681B685B69BA
:10249800DA43BB6813409BB2002B14BF012300230F
:1024A800DBB20BE0FB681B689B69DA43BB6813402F
:1024B8009BB2002B14BF01230023DBB2002B7FF457
:1024C8006DAF002318461037BD4680BD80B584B077
:1024D80000AFF860B9607A6034E0F86800F086F818
:1024E8000346002B01D0012334E0BB68B3F1FF3F62
:1024F80028D0FEF72FFD02467B68D31ABA689A42A5
:1025080002D3BB68002B1DD1FB681B685B6903F015
:102518008003802B16D0FB6800221A63FB682022F8
:1025280083F83D20FB68002283F83E20FB681B6C83
:1025380043F02002FB681A64FB68002283F83C2001
:10254800012307E0FB681B685B6903F08003802BAD
:10255800C3D1002318461037BD4680BD80B584B06E
:1025680000AFF860B9607A6034E0F86800F03EF8CF
:102578000346002B01D0012334E0BB68B3F1FF3FD1
:1025880028D0FEF7E7FC02467B68D31ABA689A425D
:1025980002D3BB68002B1DD1FB681B685B6903F085
:1025A8000403042B16D0FB6800221A63FB68202260
:1025B80083F83D20FB68002283F83E20FB681B6CF3
:1025C80043F02002FB681A64FB68002283F83C2071
:1025D800012307E0FB681B685B6903F00403042B15
:1025E800C3D1002318461037BD4680BD80B483B0E0
:1025F80000AF78607B681B685B6903F48063B3F5A0
:10260800806F1BD17B681B686FF480625A617B689E
:1026180000221A637B68202283F83D207B68002211
:1026280083F83E207B681B6C43F004027B681A64C5
:102638007B68002283F83C20012300E00023184631
:102648000C37BD465DF8047B7047000080B586B046
:1026580000AF78607B68002B01D1012367E27B68BB
:102668001B6803F00103002B75D0884B9B6803F0AF
:102678000C03042B0CD0854B9B6803F00C03082B30
:1026880012D1824B5B6803F48003B3F5800F0BD142
:102698007E4B1B6803F40033002B5BD07B685B68C0
:1026A800002B57D1012342E27B685B68B3F5803F7A
:1026B80006D1764B1B68754A43F4803313601DE0DE
:1026C8007B685B68B3F5A02F0CD1704B1B686F4A11
:1026D80043F4802313606D4B1B686C4A43F48033CA
:1026E80013600BE0694B1B68684A23F4803313605E
:1026F800664B1B68654A23F4802313607B685B681C
:10270800002B13D0FEF726FC386108E0FEF722FC08
:1027180002463B69D31A642B01D9032307E25B4BBA
:102728001B6803F40033002BF0D014E0FEF712FC12
:10273800386108E0FEF70EFC02463B69D31A642BA9
:1027480001D90323F3E1514B1B6803F40033002B39
:10275800F0D100E000BF7B681B6803F00203002B88
:1027680063D04A4B9B6803F00C03002B0BD0474BFC
:102778009B6803F00C03082B1CD1444B5B6803F4E3
:102788008003002B16D1414B1B6803F00203002B7A
:1027980005D07B68DB68012B01D00123C7E13B4BE7
:1027A8001B6823F0F8027B681B69DB003749134379
:1027B8000B603AE07B68DB68002B20D0344B0122A9
:1027C8001A60FEF7C7FB386108E0FEF7C3FB024654
:1027D8003B69D31A022B01D90323A8E12B4B1B68B1
:1027E80003F00203002BF0D0284B1B6823F0F802FB
:1027F8007B681B69DB00254913430B6015E0244BFC
:1028080000221A60FEF7A6FB386108E0FEF7A2FB7B
:1028180002463B69D31A022B01D9032387E11B4BDC
:102828001B6803F00203002BF0D17B681B6803F0E0
:102838000803002B36D07B685B69002B16D0154B3C
:1028480001221A60FEF786FB386108E0FEF782FB7A
:1028580002463B69D31A022B01D9032367E10B4BCC
:102868005B6F03F00203002BF0D01BE0094B002242
:102878001A60FEF76FFB38610EE0FEF76BFB02464D
:102888003B69D31A022B07D9032350E100380240D1
:1028980000004742800E4742884B5B6F03F00203FB
:1028A800002BEAD17B681B6803F00403002B00F0BF
:1028B80097800023FB75814B1B6C03F08053002B22
:1028C8000FD10023BB607D4B1B6C7C4A43F08053C7
:1028D80013647A4B1B6C03F08053BB60BB68012305
:1028E800FB75774B1B6803F48073002B18D1744B6E
:1028F8001B68734A43F480731360FEF72BFB38613F
:1029080008E0FEF727FB02463B69D31A022B01D9E0
:1029180003230CE16A4B1B6803F48073002BF0D08F
:102928007B689B68012B06D1644B1B6F634A43F09D
:10293800010313671CE07B689B68052B0CD15F4B78
:102948001B6F5E4A43F0040313675C4B1B6F5B4AC3
:1029580043F0010313670BE0584B1B6F574A23F0F2
:1029680001031367554B1B6F544A23F00403136785
:102978007B689B68002B15D0FEF7ECFA38610AE0FB
:10298800FEF7E8FA02463B69D31A41F288329342CD
:1029980001D90323CBE0494B1B6F03F00203002B43
:1029A800EED014E0FEF7D6FA38610AE0FEF7D2FA64
:1029B80002463B69D31A41F28832934201D9032374
:1029C800B5E03E4B1B6F03F00203002BEED1FB7DFD
:1029D800012B05D1394B1B6C384A23F08053136403
:1029E8007B689B69002B00F0A180344B9B6803F047
:1029F8000C03082B5CD07B689B69022B41D1314BBF
:102A080000221A60FEF7A6FA386108E0FEF7A2FA7B
:102A180002463B69D31A022B01D9032387E0274BCF
:102A28001B6803F00073002BF0D17B68DA697B68C0
:102A38001B6A1A437B685B6A9B011A437B689B6A23
:102A48005B08013B1B041A437B68DB6A1B061B49B6
:102A580013434B601B4B01221A60FEF77BFA386167
:102A680008E0FEF777FA02463B69D31A022B01D930
:102A780003235CE0114B1B6803F00073002BF0D0BC
:102A880054E0104B00221A60FEF764FA386108E03F
:102A9800FEF760FA02463B69D31A022B01D90323D9
:102AA80045E0064B1B6803F00073002BF0D13DE0B6
:102AB8007B689B69012B07D1012338E0003802406D
:102AC80000700040600047421B4B5B68FB607B68FE
:102AD8009B69012B28D0FB6803F480027B68DB69C3
:102AE8009A4221D1FB6803F03F027B681B6A9A4235
:102AF8001AD1FA6847F6C07313407A68526A92018D
:102B0800934211D1FB6803F440327B689B6A5B08EF
:102B1800013B1B049A4207D1FB6803F070627B6893
:102B2800DB6A1B069A4201D0012300E00023184605
:102B38001837BD4680BD00BF0038024080B584B05C
:102B480000AF786039607B68002B01D10123CCE0AD
:102B5800684B1B6803F007033A689A420CD9654B27
:102B68003A68D2B21A70634B1B6803F007033A68DD
:102B78009A4201D00123B8E07B681B6803F0020386
:102B8800002B20D07B681B6803F00403002B05D0C2
:102B9800594B9B68584A43F4E05393607B681B6821
:102BA80003F00803002B05D0534B9B68524A43F4AB
:102BB80060439360504B9B6823F0F0027B689B68EE
:102BC8004D4913438B607B681B6803F00103002B9E
:102BD80044D07B685B68012B07D1474B1B6803F423
:102BE8000033002B19D101237FE07B685B68022B3F
:102BF80003D07B685B68032B07D13F4B1B6803F04E
:102C08000073002B09D101236FE03B4B1B6803F0D5
:102C18000203002B01D1012367E0374B9B6823F0A7
:102C280003027B685B68344913438B60FEF792F9B3
:102C3800F8600AE0FEF78EF90246FB68D31A41F203
:102C48008832934201D903234FE02B4B9B6803F052
:102C58000C027B685B689B009A42EBD1254B1B6892
:102C680003F007033A689A420CD2224B3A68D2B270
:102C78001A70204B1B6803F007033A689A4201D088
:102C8800012332E07B681B6803F00403002B08D0A3
:102C9800194B9B6823F4E0527B68DB6816491343A1
:102CA8008B607B681B6803F00803002B09D0124B6C
:102CB8009B6823F460427B681B69DB000E49134361
:102CC8008B6000F021F802460B4B9B681B0903F050
:102CD8000F030A49CB5C22FA03F3094A1360094B34
:102CE8001B681846FEF7F2F8002318461037BD4651
:102CF80080BD00BF003C0240003802404C33000851
:102D080000000020040000202DE9B04F90B000AF73
:102D180000237B630023FB6300233B630023BB6327
:102D2800594B9B6803F00C03082B0DD0082B00F2BD
:102D3800A180002B02D0042B03D09BE0534BBB6334
:102D48009BE0534BBB6398E04F4B5B6803F03F033A
:102D58007B634D4B5B6803F48003002B28D04A4B00
:102D68005B689B0900223B627A623B6AC3F30800F6
:102D78000021474B03FB01F2002300FB03F313443C
:102D8800434AA0FB0212FA620A46BA62FA6A13447C
:102D9800FB627B6B0022BB61FA61D7E90623D7E9A6
:102DA8000A01FDF715FA02460B461346FB6353E08A
:102DB800354B5B689B0900223B617A613B69C3F331
:102DC800080A4FF0000B52465B464FF000004FF0E8
:102DD8000001590141EAD261500102460B46B2EBAB
:102DE8000A0863EB0B094FF000024FF000034FEAAB
:102DF800891343EA98634FEA8812B2EB080463EB3D
:102E080009054FF000024FF00003EB0043EA54734A
:102E1800E20014461D4614EB0A033B6045EB0B0326
:102E28007B604FF000024FF00003D7E900452946C8
:102E38008B02214643EA915321468A0210461946DD
:102E48007B6B0022BB60FA60D7E90223FDF7C0F96B
:102E580002460B461346FB630B4B5B681B0C03F0E7
:102E6800030301335B003B63FA6B3B6BB2FBF3F389
:102E7800BB6302E0054BBB6300BFBB6B1846403722
:102E8800BD46BDE8B08F00BF003802400024F40002
:102E980040787D0180B400AF034B1B681846BD46DF
:102EA8005DF8047B704700BF0000002080B500AFCC
:102EB800FFF7F0FF0246054B9B689B0A03F00703E8
:102EC8000349CB5C22FA03F3184680BD0038024060
:102ED8005C33000802440346934200D1704703F86C
:102EE800011BF9E770B50D4D0D4C641BA4100026AD
:102EF800A64209D10B4D0C4C00F018F8641BA41025
:102F08000026A64205D170BD55F8043B9847013606
:102F1800EEE755F8043B98470136F2E774330008AA
:102F2800743300087433000878330008F8B500BF1C
:102F3800F8BC08BC9E467047F8B500BFF8BC08BC92
:042F48009E467047EA
:102F4C00FFFFFFFFFFFFFFFFFFFFFFFFFFFFFFFF85
:102F5C00FFFFFFFFFFFFFFFFFFFFFFFFFFFFFFFF75
:102F6C00FFFFFFFFFFFFFFFFFFFFFFFFFFFFFFFF65
:102F7C00FFFFFFFFFFFFFFFFFFFFFFFFFFFFFFFF55
:102F8C00FFFFFFFFFFFFFFFFFFFFFFFFFFFFFFFF45
:102F9C00FFFFFFFFFFF8007FFFFFFFFE000FFFFFAB
:102FAC00FFFFFFFFFF000003FFFFFFC00000FFFF5C
:102FBC00FFF9FFFFF00000003FFFFC0000003FFFA7
:102FCC00FFF80FFE0000000003FF800000003FFF31
:102FDC00FFF80000000000000000000000003FFFB0
:102FEC00FFF80000001E03E000000007807C3FFF9C
:102FFC00FFF8000001C0000E000000700001FFFF90
:10300C00FFFF00001C03FF00E0000700FFE03FFF94
:10301C00FFF83C07807FFFF80F81F01FFFFF3FFF99
:10302C00FFFE000007FFFFFF800001FFFFFFFFFF17
:10303C00FFFFE000FFE0001FFC001FF80003FFFF94
:10304C00FFFFFFFFFE000001FFFFFF8000007FFF7E
:10305C00FFF8FFFFC007FF801FFFF801FFF03FFFE5
:10306C00FFF801F000FFFFFC003C003FFFFF3FFFBB
:10307C00FFFE00000FFFFFFFC00003FFFFFFFFFF7D
:10308C00FFFFF001FFFFFFFFFC003FFFFFFFFFFF13
:10309C00FFFFFFFFFFFFFFFFFFFFFFFFFFFFFFFF34
:1030AC00FFFFFFFFFFFFFFFFFFFFFFFFFFFFFFFF24
:1030BC00FFFFFFFFFFFFFFFFFFFFFFFFFFFFFFFF14
:1030CC00FFFFFFFFFFFFFFFFFFFFFFFFFFFFFFFF04
:1030DC00FFFFFFFFFFFFFFFFFFFFFFFFFFFFFFFFF4
:1030EC00FFFFFFFFFFFFFFFFFFFFFFFFFFFFFFFFE4
:1030FC00FFFFFFFFFFFFFFFFFFFFFFFFFFFFFFFFD4
:10310C00FFFFFFFFFFFFFFFFFFFFFFFFFFFFFFFFC3
:10311C00FFFFFFFFFFFFFFFFFFFFFFFFFFFFFFFFB3
:10312C00FFFFFFFFC00FFFFFFFFFFFFFFC07FFFFCD
:10313C00FFFFFFFE0007FFFFFFFFFFFFFC07FFFF86
:10314C00FFFFFFF8000FFFFFFFFFFFFFF807FFFF78
:10315C00FFFFFFF00FFFFFFFFFFFFFFFF807FFFF71
:10316C00FFFFFFF01FFFFFFFFFFFFFFFF80FFFFF49
:10317C00FFFFFF00007FE00FFFE01C0FF00FFFFFD1
:10318C00FFFFFE00007F0001FF00000FF00FFFFFAC
:10319C00FFFFFE00007C0000FE00000FF00FFFFFA1
:1031AC00FFFFFFC03FF803807803E00FE01FFFFF35
:1031BC00FFFFFFC03FF00FC0F007F01FE01FFFFF45
:1031CC00FFFFFFC07FE01FFFF00FE01FE01FFFFFBE
:1031DC00FFFFFFC07FC03FFFE01FE01FE03FFFFF8E
:1031EC00FFFFFF807FC03FFFE01FE01FC03FFFFFDE
:1031FC00FFFFFF807FC03FFFE01FC03FC03FFFFFCE
:10320C00FFFFFF80FFC03FFFE01FC03FC07FFFFFFD
:10321C00FFFFFF00FFC01FFFE01FC03F807FFFFFCD
:10322C00FFFFFF00FFE00FE3E00F807F803DFFFF1B
:10323C00FFFFFF01FFE00003F00000078001FFFF2C
:10324C00FFFFFE01FFF80007F8000007C001FFFFB9
:10325C00FFFFFE01FFFE000FFE01F00FE003FFFF7A
:10326C00FFFFFE03FFFFFFFFFFFFFFFFFFFFFFFF5F
:10327C00FFFFFC03FFFFFFFFFFFFFFFFFFFFFFFF51
:10328C00FFFE0007FFFFFFFFFFFFFFFFFFFFFFFF3A
:10329C00FFFE0007FFFFFFFFFFFFFFFFFFFFFFFF2A
:1032AC00FFFC001FFFFFFFFFFFFFFFFFFFFFFFFF04
:1032BC00FFFF00FFFFFFFFFFFFFFFFFFFFFFFFFF11
:1032CC00FFFFFFFFFFFFFFFFFFFFFFFFFFFFFFFF02
:1032DC00FFFFFFFFFFFFFFFFFFFFFFFFFFFFFFFFF2
:1032EC00FFFFFFFFFFFFFFFFFFFFFFFFFFFFFFFFE2
:1032FC00FFFFFFFFFFFFFFFFFFFFFFFFFFFFFFFFD2
:10330C00FFFFFFFFFFFFFFFFFFFFFFFFFFFFFFFFC1
:10331C00FFFFFFFFFFFFFFFFFFFFFFFFFFFFFFFFB1
:10332C00FFFFFFFFFFFFFFFFFFFFFFFFFFFFFFFFA1
:10333C00FFFFFFFFFFFFFFFFFFFFFFFFFFFFFFFF91
:10334C000000000000000000010203040607080949
:10335C0000000000010203040006101600061016FF
:08336C009CCEFF7F0100000070
:04337400BD0100088F
:0433780099010008AF
:0C337C000024F40010000000010000001C
:0400000508000E3DA4
:00000001FF
