:1000000078C0000095C0000093C0000091C00000BF
:100010008FC000008DC000008BC0000089C00000B0
:1000200087C0000085C0000083C0000081C00000C0
:100030007FC000007DC000007BC0000079C00000D0
:1000400077C0000075C0000073C0000071C00000E0
:100050006FC000006DC000006BC0000069C00000F0
:1000600067C000003EC2000063C0000061C0000025
:100070005FC000005DC000005BC0000059C0000010
:1000800057C0000055C0000053C0000051C0000020
:100090004FC000004DC000004BC0000049C0000030
:1000A00047C0000045C0000045C2000041C000003C
:1000B0003FC000003DC000003BC0000039C0000050
:1000C00037C0000035C0000033C0000031C0000060
:1000D0002FC000002DC000002BC0000029C0000070
:1000E00027C00000560164017C019101A601B40102
:1000F000D90111241FBECFEFD1E2DEBFCDBF00E09A
:100100000CBF12E0A0E0B2E0E2EAF5E000E00BBFD5
:1001100002C007900D92A230B107D9F722E0A2E009
:10012000B2E001C01D92A531B207E1F7C5D137C2D7
:1001300067CFFC011582A081B181838191E0980F86
:100140009383A80FB11D85E58C93848193819823B7
:10015000A081B18181E0890F8383A90FB11D8EE455
:100160008C93848193819823A081B18181E0890F50
:100170008383A90FB11D85E48C9384819381982397
:10018000A081B18181E0890F8383A90FB11D82E530
:100190008C93848193819823A081B18181E0890F20
:1001A0008383A90FB11D4F5F4C9384819381982362
:1001B000A081B18181E0890F8383A90FB11D8AE3FA
:1001C0008C93848193819823A081B18181E0890FF0
:1001D0008383A90FB11D6C939481838198239383AA
:1001E00095814927642786E3862785830895FC0146
:1001F000A081B181838191E0980F9383A80FB11DF5
:100200006C9394818381982393838581862785834A
:100210000895CF93DF93EB01DC01ED91FC911197F1
:1002200014968C91E80FF11D6081683A38F4603AB9
:1002300038F5603129F16231D1F422C06E3D01F10F
:1002400018F46A3AA1F41CC0603F19F0613F79F4D8
:1002500017C042E060EFCE016CDF6DE0CE01C7DF7A
:100260006D81CE01C4DF85B1805885B909C042E0F7
:10027000CE015FDF6FEFCE01BADF6D81CE01B7DF58
:10028000DF91CF910895DC0113962C911397C9C08B
:1002900018964C91189750E04730510508F0B3C0BC
:1002A000FA018827EE58FF4F8F4F71C1ED91FC91F5
:1002B0001197E90FF11D8081853509F0A7C081E014
:1002C00018968C931897A2C0ED91FC911197E90FA5
:1002D000F11D80818E3429F482E018968C93189752
:1002E00095C0853509F492C018961C9218979150C4
:1002F00012969C9312978AC0ED91FC911197E90F89
:10030000F11D8081853429F483E018968C93189729
:100310007DC018961C921897915012969C93129734
:1003200075C0ED91FC911197E90FF11D8081823527
:1003300029F484E018968C93189768C018961C923C
:100340001897915012969C93129760C0ED91FC9172
:100350001197E90FF11D808117968C93179785E00F
:1003600018968C93189752C0ED91FC911197E90F54
:10037000F11D80818A33A9F486E018968C93189732
:100380009F5F15968C911597982314969C931497BC
:1003900017969C91179786E3892716968C93169744
:1003A00035C018961C921897915012969C931297EC
:1003B0002DC017968C911797815017968C9317978D
:1003C000882371F0ED91FC911197E90FF11D808167
:1003D00016969C911697892716968C93169716C099
:1003E00018961C921897ED91FC911197E90FF11D49
:1003F000908116968C911697981308C081E01A96F2
:100400008C931A9703C018961C92189712968C9189
:1004100012978F5F15969C911597892312968C934E
:10042000129712969C911297291332CF08950F9329
:100430001F93CF93DF938C01EB01FC01828588230E
:1004400019F01286C801E5DEF801928183819817C0
:1004500011F0C80118DF8A819B81891791F0909172
:10046000C00095FF0EC0E881F98191E0980F9A8352
:10047000E80FF11D80818093C6008C819A818923C9
:100480008A83DF91CF911F910F91089582E884B9FB
:1004900084B18E7F84B981E985B908951092C50031
:1004A0008093C4008EEF8093C00088E98093C100E0
:1004B00086E08093C2000895F894E8DF80E1EEDFE3
:1004C00078946DE072E082E092E0B1DFFACF909133
:1004D000C00095FFFCCF8093C60085B1805885B9D8
:1004E00008951F920F920FB60F9211240BB60F9220
:1004F0002F933F934F935F936F937F938F939F932C
:10050000AF93BF93EF93FF938091C600E0DFFF911D
:10051000EF91BF91AF919F918F917F916F915F917B
:100520004F913F912F910F900BBE0F900FBE0F90E8
:100530001F9018951F920F920FB60F9211240BB6B1
:100540000F928F939F93EF93FF93E8E8F0E0808101
:1005500091818053984F91838083809100028150D4
:1005600080930002811108C0809113028160809302
:1005700013028AE080930002FF91EF919F918F9187
:100580000F900BBE0F900FBE0F901F901895EE0F9F
:10059000FF1F881F8BBF0790F691E02D1994F894E8
:0205A000FFCF8B
:0205A2000A004D
:00000001FF
