S01D000043696E74615472616E73706F727461646F72615F312E73726563B4
S11300000C943B000C9458000C9458000C94580029
S11300100C9458000C9458000C9458000C945800FC
S11300200C9458000C9458000C94B0050C943E05A4
S11300300C947B050C9458000C9458000C945800B4
S11300400C94F7050C9458000C941B050C94580060
S11300500C9458000C9458000C9458000C945800BC
S11300600C9458000C9458001201210132014301F0
S113007054016201780111241FBECFEFD8E0DEBF26
S1130080CDBF11E0A0E0B1E0ECE3F3E102C00590E4
S11300900D92AA30B107D9F723E0AAE0B1E001C07C
S11300A01D92AC3DB207E1F70E94F2060C949C0944
S11300B00C94000010924801E7E3F1E083E08083B0
S11300C01182138212828DE184878CE591E09583FD
S11300D0848380ED91E09783868384E492E0918722
S11300E08087109244011092470109C0E82FF0E084
S11300F0E95DFE4F9FEF90838F5F8093470180916E
S11301004701803198F30895E7E3F1E04481558194
S1130110248530E0BA01621B730B8617970768F0D9
S1130120420F531F4817590740F0E0914801F0E08F
S1130130E95DFE4F81E0808335C040913D015091DF
S11301403E01BA01621B730B8617970768F0420FD2
S1130150531F4817590740F0E0914801F0E0E95D6A
S1130160FE4F82E080831EC040913F0150914001C8
S1130170BA01621B730B8617970768F0240F351FAB
S11301802817390740F0E0914801F0E0E95DFE4F9F
S113019083E0808307C0E0914801F0E0E95DFE4F11
S11301A08DED8083809148018F5F8F70809348012B
S11301B00895E82FF0E0E95DFE4F80810895E82F6F
S11301C0F0E0E95DFE4F60830895FC017093C50083
S11301D06093C4008EEF8093C00088E98093C100CF
S11301E086E08093C20010821182128215821682E8
S11301F01382148250934D0140934C0108951F9330
S1130200CF93DF93EC011B819BC0E0914E018E2FB5
S113021090E08730910508F091C0FC01EC5CFF4F41
S11302200C94750881E0820F8C83FE01E20FF11DAE
S11302308781853509F084C081E080934E011A825C
S11302407FC081E0820F8C83FE01E20FF11D878164
S11302508E3421F482E080934E0172C02C8310927C
S11302604E016EC081E0820F8C83FE01E20FF11D0E
S11302708781853421F483E080934E0161C02C830F
S113028010924E015DC081E0820F8C83FE01E20F6B
S1130290F11D8781823521F484E080934E0150C0A2
S11302A02C8310924E014CC0298381E0820F8C83F1
S11302B0FE01E20FF11D878180930A0185E080939E
S11302C04E013EC081E0820F8C83FE01E20FF11DDE
S11302D087818A3349F486E080934E0190910A0124
S11302E086E389278A832CC02C8310924E0128C070
S11302F080910A01823050F091E0920F9C83FE01BC
S1130300E20FF11D97812A8192279A83815080936D
S11303100A01811115C010924E019A818C81FE014F
S1130320E80FF11D878198130BC0E0914C01F09107
S11303304D01309729F0CE01099502C010924E016B
S11303402C81121362CFDF91CF911F910895CF9327
S1130350DF93EC019C818B81981719F0CE010E94E8
S1130360FF008E819D81891779F09091C00095FFDF
S11303700BC0FE01E80FF11DE95FFE4F8081809301
S1130380C6008E818F5F8E83DF91CF910895FC012B
S11303902181213031F078F0223011F12330A1F0A5
S11303A02DC0FC012081211102C022E0218321E023
S11303B0FC0122830895FC012081213011F423E003
S11303C02183FC01128208958081813039F4818374
S11303D00680F781E02D83E0099508951182089540
S11303E08081811108C0118212820680F781E02D7C
S11303F082E00995089581E08183089581E08183F5
S1130400089510924F0112C0E82FF0E0EE0FFF1F85
S1130410EE0FFF1FEE0FFF1FE05BFE4F14821382EF
S11304201582178216828F5F80934F0180914F014E
S1130430843050F310924F0108959C0180914F0134
S11304408430A0F4E82FF0E0EE0FFF1FEE0FFF1F43
S1130450EE0FFF1FE05BFE4F3483238365835783D6
S1130460468391E0980F90934F01089580E008959A
S1130470109247013BC090E0FC01EE0FFF1FEE0F0E
S1130480FF1FEE0FFF1FE05BFE4FA381B4812C9191
S113049030E0058002C0359527950A94E2F720FFE5
S11304A00CC0FC01EE0FFF1FEE0FFF1FEE0FFF1F2E
S11304B0E05BFE4F21E020830AC0FC01EE0FFF1F2A
S11304C0EE0FFF1FEE0FFF1FE05BFE4F1082880F41
S11304D0991F880F991F880F991F805B9E4F0E9458
S11304E0C701809147018F5F809347018091470145
S11304F0843008F20895E82FF0E0EE0FFF1FEE0FAE
S1130500FF1FEE0FFF1FE05BFE4F82810895809175
S11305100C0190910D01019690930D0180930C01B3
S11305200895FC0173836283458314820895FC015A
S113053010920B01848181110CC08581823049F0B5
S113054081E0848380910C0190910D0191838083DB
S113055016C02081318180910C0190910D01821B84
S1130560930B228133818217930748F081E08093B3
S11305700B018581813011F482E08583148280919E
S11305800B010895CF92DF92EF92FF92CF93DF9306
S1130590EC016A017B0182E190E00E947B08FC018E
S11305A090930F0180930E01892B39F1D183C0837D
S11305B0C186D286E386F486168210861782138259
S11305C0128215821482168615861786809112016E
S11305D090911301918B808B892B21F4F09311015D
S11305E0E093100180E0FE01099580910E01909145
S11305F00F01909313018093120180910E01909149
S11306000F01DF91CF91FF90EF90DF90CF9008958D
S113061090930F0180930E01009721F0FC018781D4
S11306209085089580E090E0089590930F01809361
S11306300E01009771F0FC010190F081E02D81E042
S11306400995E0910E01F0910F0182E0878780E027
S1130650089581E0089590930F0180930E0100970F
S113066031F0FC010190F081E02D80E009950895BE
S113067090930F0180930E01009721F0FC01738386
S1130680628316820895FC0190930F0180930E01FA
S1130690892B29F075836483868188608683089515
S11306A0E0911001F0911101309709F445C0868161
S11306B083FF2EC01682228133818481958128177D
S11306C0390728F4821B930B9087878305C0821B0C
S11306D0930B0197908787838781908581359D420D
S11306E020F08FEF9FEF908787830584F685E02DB8
S11306F0309749F0A0910E01B0910F0117968D919A
S11307009C9118970995E0911001F09111011786B9
S1130710E0910E01F0910F0180899189909311016C
S113072080931001892B41F480911201909113015F
S11307309093110180931001089590930F01809379
S11307400E01009719F0FC017687658708958823C8
S113075021F085B1826085B9089585B18D7F85B911
S113076008950895CF92DF92EF92FF920F931F9313
S1130770CF93DF93EC01E6E7F1E085E580838EE437
S1130780818385E4828382E58383148286E0809377
S113079014018AE38583E981F0E03296EC0FFD1FB2
S11307A087818E3D09F4AAC028F4803AE9F1833A9E
S11307B099F0B2C0803F21F0813F09F4C2C0ACC0BF
S11307C0E6E7F1E080EF868388E0809314018DE012
S11307D0878383E08483B5C087E08093140106E7B0
S11307E011E083EAD80116968C9380917001909160
S11307F071010E9408032FEA33E0F9018083918399
S1130800A0911401E1E0EA0FB0E0AA58BE4F8C9326
S113081081E08E0F80931401F0E0EA58FE4F90833C
S113082084E0F80184838DC087E0809314010F2E47
S1130830F6E7EF2EF1E0FF2EF02D80EAD7011696B1
S11308408C938091B4030E947B020FEA13E090E042
S1130850F80191838083A0911401E1E0EA0FB0E0F4
S1130860AA58BE4F8C9381E08E0F80931401F0E060
S1130870D80111968C91EA58FE4F80830F2EF5EB28
S1130880CF2EF3E0DF2EF02DF60180810E947B0253
S113089090E0D8018D939C93A0911401E1E0EA0FBC
S11308A0B0E0AA58BE4F8C9381E08E0F8093140160
S11308B0F0E0D80111968C91EA58FE4F8083F6013E
S11308C083850E947B0290E0D8018D939C93A09134
S11308D01401E1E0EA0FB0E0AA58BE4F8C9381E026
S11308E08E0F80931401F0E0D80111968C91EA5890
S11308F0FE4F808388E0F701848323C0E6E7F1E0BC
S11309008EED86838091B703878399E090931401D9
S1130910808783E0848315C0A6E7B1E08DED169649
S11309208C93169788E080931401E981F0E0329665
S1130930EC0FFD1F878117968C93179783E014960D
S11309408C93109274011092470118C0E82FF0E0C4
S1130950EA58FE4F9081209174019227909374017C
S11309609D8121E0290F2D832081FE01E90FF11DD6
S1130970E95FFE4F20838F5F809347018091470199
S113098090911401891710F38D8191E0980F9D8344
S1130990C80FD11DC95FDE4F809174018883DF9138
S11309A0CF911F910F91FF90EF90DF90CF9008951A
S11309B0CF93DF93EC018091B4030E947B028130DA
S11309C061F58091440180FD28C0E7E3F1E0918165
S11309D09F5F9183C83884E0D80750F528E834E055
S11309E02C1B3D0B42815381240F351F33832283FB
S11309F06081961790F0EF01118270E0C9010E94A6
S1130A004D08CB017B836A830E9484001B821A8277
S1130A10809144018160809344018091B4030E94D9
S1130A207B02811105C0809144018E7F8093440133
S1130A30DF91CF9108951F920F920FB60F92112458
S1130A408F93AF93BF93EF93FF93A8EAB1E013960C
S1130A50EC91139781E08E0F13968C93F0E08091C4
S1130A60C600E855FE4F8783FF91EF91BF91AF9188
S1130A708F910F900FBE0F901F9018951F920F9299
S1130A800FB60F9211242F933F934F935F936F935D
S1130A907F938F939F93AF93BF93EF93FF93E8E874
S1130AA0F0E0808191818053984F9183808380917D
S1130AB0080181508093080180910801811108C0C8
S1130AC0809175018160809375018AE080930801AB
S1130AD00E948702FF91EF91BF91AF919F918F91F7
S1130AE07F916F915F914F913F912F910F900FBE26
S1130AF00F901F9018951F920F920FB60F9211240A
S1130B002F933F934F935F936F937F938F939F9311
S1130B10AF93BF93EF93FF93809170019091710114
S1130B200E942B0386B3806286BBE1E8F0E080EC90
S1130B30808380818260808382E280936F00FF9152
S1130B40EF91BF91AF919F918F917F916F915F9141
S1130B504F913F912F910F900FBE0F901F901895BA
S1130B601F920F920FB60F9211242F933F934F931E
S1130B705F936F937F938F939F93AF93BF93EF9301
S1130B80FF938091810086FF10C082E880938100EA
S1130B9060918600709187007695679580917001C9
S1130BA0909171010E94380311C0EFE6F0E080815A
S1130BB08F7D80836091860070918700769567951C
S1130BC080917001909171010E944303FF91EF9114
S1130BD0BF91AF919F918F917F916F915F914F9151
S1130BE03F912F910F900FBE0F901F9018951F9259
S1130BF00F920FB60F9211242F933F934F935F934D
S1130C006F937F938F939F93AF93BF93EF93FF93D0
S1130C100E94E707FF91EF91BF91AF919F918F9150
S1130C207F916F915F914F913F912F910F900FBEE4
S1130C300F901F90189582E284B984B18E7E84B996
S1130C4081E185B980EE8AB98AB1837E8AB98BB194
S1130C508C618BB90895109280008FE19EE490938B
S1130C6089008093880086B386BB82E080936F00FE
S1130C7082E880938100089514BC16BC87E085BB8C
S1130C8081E080936E0082E085BD0895CF93DF9369
S1130C90EC01623091F48B810E94D9008D3D21F4E6
S1130CA08B818F5F8B831EC08B810E94D9009A81B8
S1130CB0891318C081E08C8315C08C81882391F03E
S1130CC08B8191E0980F9B836DED0E94DF006AE5B4
S1130CD089810E94790741E068EE73E0CE010596B0
S1130CE00E9491028B818F708B83DF91CF91089545
S1130CF0682F85EB93E00E9446060895682F80ECE8
S1130D0093E00E9446060895682F8BEC93E00E94BE
S1130D10460608958091070181111AC080918400CC
S1130D20909185000F9690931601809315019093EE
S1130D308B0080938A0086E086BB80936F0080914D
S1130D407001909171010E9415038AE0809307015C
S1130D5080910701815080930701809106018111E0
S1130D6005C00E94380284E0809306018091060148
S1130D70815080930601109247012AC02BE0829F84
S1130D80C001112486549C4F0E9497028823D9F0F5
S1130D908091470190E02BE0289FF001299FF00DFE
S1130DA01124EB54FC4F2481213069F42BE0289F5B
S1130DB0F001299FF00D1124EB54FC4F148266EAD4
S1130DC081810E947907809147018F5F8093470159
S1130DD080914701833090F2809175018E7F8093DA
S1130DE075010895F894109275010E941B060E94E3
S1130DF02B060E943C0642EB53E060E170E088EA77
S1130E0091E00E94E5000E9401020E945A0040E124
S1130E1050E060E070E087EA93E00E94C202AC0117
S1130E2060E070E04093700150937101609372012F
S1130E307093730168ED74E00E949D0365E08BE29A
S1130E4090E00E94CA07C5EBD3E0898366E08BE299
S1130E5090E00E94CA078C8767E08BE290E00E94D2
S1130E60CA078F8B41EB53E064E083E290E00E9479
S1130E701D028093B40348E756E062E089E290E003
S1130E800E941D0288834EE756E063E089E290E009
S1130E900E941D028B8744E856E064E089E290E0FA
S1130EA00E941D028E8B81E08A831C821B8282E059
S1130EB08D871F861E8683E0888F1A8E198E7894FC
S1130EC060E089810E94790760E08C850E9479073F
S1130ED060E08F890E94790788EA91E00E94A70167
S1130EE00E9450038091750180FFF6CF0E948A060C
S1130EF0F3CF282F80911701281708F04AC0663ACB
S1130F000CF447C06B350CF044C089E76802B001AB
S1130F1011247093D7036093D6038091D6039091E4
S1130F20D7038B599D4A9093D7038093D60380911E
S1130F30D6039091D70364EB70E00E94610870932C
S1130F40D7036093D6038091D6039091D703059677
S1130F509093D7038093D6038091D6039091D703BF
S1130F606AE070E00E9461087093D7036093D6032F
S1130F70822F90E02091D6033091D703FC01EE0F2D
S1130F80FF1FEE0FFF1F8E0F9F1FFC01E85EFE4F39
S1130F90248308959C01809117018330B0F4E82FD5
S1130FA0F0E0AF01440F551F440F551FE40FF51F28
S1130FB0E85EFE4F9CE093839483318320836283B5
S1130FC091E0980F9093170108958FEF0895809101
S1130FD00901815080930901109247012DC090E0CE
S1130FE0FC01EE0FFF1FEE0FFF1FE80FF91FE85E75
S1130FF0FE4F2381215023832381211118C0FC013A
S1131000EE0FFF1FEE0FFF1F8E0F9F1FFC01E85E08
S1131010FE4FA081B1812C9181E090E0028002C05A
S1131020880F991F0A94E2F7809582238C9380910C
S113103047018F5F8093470180914701833078F2A5
S113104080910901811128C0109247011EC0F0E06F
S1131050CF01880F991F880F991FE80FF91FE85EC9
S1131060FE4F84818383A081B1812C9181E090E043
S1131070028002C0880F991F0A94E2F7822B8C9396
S1131080809147018F5F80934701E0914701E330EE
S1131090F0F28CE9809309010895AA1BBB1B51E16E
S11310A007C0AA1FBB1FA617B70710F0A61BB70BD4
S11310B0881F991F5A95A9F780959095BC01CD0179
S11310C0089597FB072E16F4009407D077FD09D0F6
S11310D00E944D0807FC05D03EF4909581959F4FE2
S11310E00895709561957F4F0895EE0FFF1F059049
S11310F0F491E02D09940F931F93CF93DF938230E3
S1131100910510F482E090E0E091DA03F091DB03C2
S113111020E030E0A0E0B0E0309719F14081518147
S11311200281138148175907C8F08417950769F499
S1131130109731F012960C93129713961C9327C0B4
S11311400093DA031093DB0322C02115310519F053
S11311504217530718F49A01BD01EF01DF01F801AA
S1131160DBCF21153105F9F0281B390B243031056B
S113117080F48A819B816115710521F0FB019383C1
S1131180828304C09093DB038093DA03FE013296DA
S113119044C0FE01E20FF31F819391932250310961
S11311A0398328833AC02091D8033091D903232B63
S11311B041F420910201309103013093D90320932B
S11311C0D80320910001309101012115310541F42A
S11311D02DB73EB74091040150910501241B350BF6
S11311E0E091D803F091D903E217F307A0F42E1B82
S11311F03F0B2817390778F0AC014E5F5F4F241777
S1131200350748F04E0F5F1F5093D9034093D8031E
S11312108193919302C0E0E0F0E0CF01DF91CF91A0
S11312201F910F910895CF93DF93009709F481C024
S1131230FC01329713821282A091DA03B091DB038E
S1131240109781F420813181820F931F2091D8035C
S11312503091D9032817390751F5F093D903E09356
S1131260D80367C0ED0120E030E0CE17DF0740F47B
S11312704A815B819E0141155105F1F0EA01F5CFE8
S1131280D383C28340815181840F951FC817D90726
S113129059F488819981840F951F029691838083E4
S11312A08A819B81938382832115310529F4F093EC
S11312B0DB03E093DA033DC0E901FB83EA83499150
S11312C05991C40FD51FEC17FD0761F480819181FA
S11312D0840F951F0296E901998388838281938103
S11312E09B838A83E0E0F0E012968D919C911397A2
S11312F0009719F0FD01DC01F7CF8D919C911197B6
S11313009D012E5F3F4F820F931F2091D803309190
S1131310D9032817390769F4309729F41092DB03AD
S11313201092DA0302C013821282B093D903A093FD
S10F1330D803DF91CF910895F894FFCF0B
S10D133C0000DC03200004060A9CF4
S9030000FC
