:020000040800F2
:1000000000000220A92500084D24000855240008FE
:100010005D240008652400086D240008000000002D
:10002000000000000000000000000000752400082F
:100030008324000800000000912400089F24000889
:10004000F9250008F9250008F9250008F925000818
:10005000F9250008F9250008F9250008F925000808
:10006000F9250008F9250008F9250008AD24000845
:10007000C1240008F9250008F9250008F925000821
:10008000F9250008F9250008D52400080000000023
:10009000000000000000000000000000F92500083A
:1000A000F9250008E9240008FD240008F9250008C6
:1000B000F925000811250008F92500082525000864
:1000C00039250008F9250008F9250008F925000858
:1000D000F9250008F9250008F925000800000000AE
:1000E000F9250008F9250008F9250008000000009E
:1000F000000000000000000000000000F9250008DA
:1001000000000000F9250008F9250008F92500087D
:1001100000000000000000000000000000000000DF
:100120004D250008F9250008F9250008F9250008E3
:10013000F925000800000000000000000000000099
:100140000000000000000000000000006125000821
:10015000F9250008F9250008F9250008F925000807
:10016000F9250008F9250008000000000000000043
:10017000000000000000000000000000000000007F
:1001800000000000752500080000000000000000CD
:08019000F9250008F92500081B
:1001980010B5054C237833B9044B13B10448AFF3B9
:1001A80000800123237010BD08010020000000001A
:1001B80054E0000808B5034B1BB103490348AFF3EB
:1001C800008008BD000000000C01002054E0000879
:1001D80053B94AB9002908BF00281CBF4FF0FF31A6
:1001E8004FF0FF3000F088B9ADF1080C6DE904CE8E
:1001F80000F006F8DDF804E0DDE9022304B07047FA
:100208002DE9F047089D8E4604468846002B4AD1C2
:100218008A42174662D9B2FA82F64EB1C6F1200375
:1002280001FA06F820FA03F3B74043EA0808B44095
:100238004FEA174E1FFA87FCB8FBFEF1230C0EFBA2
:10024800118843EA084301FB0CF29A4209D9FB18CA
:1002580001F1FF3080F0EA809A4240F2E7800239EB
:100268003B449A1AA3B2B2FBFEF00EFB102243EAFB
:10027800024300FB0CFC9C4509D9FB1800F1FF3236
:1002880080F0D6809C4540F2D3803B44023840EA57
:100298000140A3EB0C0300211DB1F3400022C5E986
:1002A8000032BDE8F0878B4205D90DB1C5E90001E0
:1002B80000210846F5E7B3FA83F1002946D17345D2
:1002C80002D3824200F20581841A6EEB03020120F8
:1002D8009046002DE5D0C5E90048E2E7002A00F085
:1002E8009080B2FA82F6002E40F0A4808A1A030C9D
:1002F8004FEA174E80B2BCB20121B2FBFEFC0EFBE6
:100308001C2243EA024304FB0CF29A4207D9FB1869
:100318000CF1FF3802D29A4200F2E080C4469B1AE0
:10032800B3FBFEF20EFB123340EA034302FB04F474
:100338009C4207D9FB1802F1FF3002D29C4200F21E
:10034800CA8002461B1B42EA0C40A5E7C1F1200601
:100358008B4022FA06F71F430EFA01F420FA06F33F
:100368002EFA06FE4FEA1749234300FA01F81FFA4E
:1003780087FCBEFBF9F01C0C09FB10EE44EA0E44A6
:1003880000FB0CFEA64502FA01F209D93C1900F15E
:10039800FF3A80F09C80A64540F2998002383C44A0
:1003A800A4EB0E041FFA83FEB4FBF9F309FB134414
:1003B8004EEA044403FB0CFCA44508D93C1903F19C
:1003C800FF3E80F08280A4457FD9023B3C4443EA4B
:1003D8000040A4EB0C04A0FB02EC64457346E14624
:1003E80062D35FD05DB1B8EB030264EB090404FA91
:1003F80006F622FA01F31E43CC40C5E90064002149
:100408004FE7B1FBF2FC010C41EA0E4180B240EA31
:1004180001423B4638463C46B846BE462026B1FB1C
:10042800F7F1A2EB080241EA0C4166E7014618E73A
:1004380010462CE7C6F120022EFA02F3B740B1406D
:1004480020FA02F24FEA174E0A43B3FBFEF8BCB299
:100458000EFB1833110C41EA034108FB04F9B040C4
:1004680089454FEA104380B23ED9791808F1FF3C1C
:1004780001D289451FD8A1EB0901B1FBFEF909FB9F
:1004880004F80EFB191192B242EA0142424529D200
:10049800BA1809F1FF31C4D24245C2D2A9F102010A
:1004A8003A44BEE7F0459DD2BEEB02036CEB070C65
:1004B8000138E14696E7A7EB09094944A8F1020C7F
:1004C800B1FBFEF909FB04F8DBE773467FE750460A
:1004D80066E70846FDE63B44023A33E7ACF1020C16
:1004E8003B441CE749469CE7A1EB0901C446B1FB24
:1004F800FEF909FB04F8C4E7704700BF80B582B075
:1005080000AF78607B681B68124A93420ED10822BC
:100518001149124802F058FA114B1B78002B05D0EC
:100528000F4B1B78013BDAB20D4B1A707B681B68C6
:100538000C4A934209D1002001F060FD0A4801F0FD
:1005480041FA094B012283F8342000BF0837BD4621
:1005580080BD00BF00480140A406002024010020FF
:100568000000002000440140D405002080B582B07E
:1005780000AF78607B685B6C782B02D1012001F0BA
:100588003DFD00BF0837BD4680BD000080B582B084
:1005980000AF78607B685B6CD02B58D12E4B93F8FA
:1005A80026301BB21B021AB22B4B93F827301BB212
:1005B80013431AB2284B1A87274B93F828301BB2DB
:1005C8001B021AB2244B93F829301BB213431AB2F8
:1005D800214B5A87204B93F82A301BB21B021AB2C0
:1005E8001D4B93F82B301BB213431AB21A4B9A8740
:1005F800194B93F82E301BB21B021AB2164B93F804
:100608002F301BB213431AB2134BDA87124B93F8ED
:1006180030301BB21B021AB20F4B93F831301BB2A9
:1006280013431AB20C4BA3F840200B4B93F832300B
:100638001BB21B021AB2084B93F833301BB2134398
:100648001AB2054BA3F84220012001F0D7FC00BFE5
:100658000837BD4680BD00BFD405002080B500AF77
:1006680000224DF2D8614D4801F0FAF8002249F60F
:1006780040414B4801F0F4F8484B9B78032B3FD896
:1006880001A252F823F000BFBB060008D5060008F7
:10069800EF060008A106000801224FF480714148C6
:1006A80003F0A0FB01224FF400713E4803F09AFBCF
:1006B80027E001224FF480713A4803F093FB0022AF
:1006C8004FF40071374803F08DFB1AE000224FF415
:1006D8008071344803F086FB01224FF400713148E1
:1006E80003F080FB0DE000224FF480712D4803F0E9
:1006F80079FB00224FF400712A4803F073FB00E0F5
:1007080000BF274B9B78032B3AD801A252F823F05D
:100718004107000859070008710700082907000861
:10072800012208211F4803F05DFB01224FF400411C
:100738001D4803F057FB24E001220821194803F063
:1007480051FB00224FF40041174803F04BFB18E01F
:1007580000220821134803F045FB01224FF4004111
:10076800114803F03FFB0CE0002208210D4803F07C
:1007780039FB00224FF400410B4803F033FB00E043
:1007880000BF074B1A88094B1B685A63034B1A882A
:10079800064B1B689A6300BF80BD00BFCC060020D3
:1007A800C40600200004024000000240E0020020CD
:1007B80080B483B000AF7860124B1A88124B1A804D
:1007C800104B5A88104B5A800E4B9A880E4B9A80C1
:1007D8000C4BDA880C4BDA800A4B1A890A4B1A81BF
:1007E800084B5A89084B5A81064B9A89064B9A81BD
:1007F800044BDA89044BDA8100BF0C37BD465DF83B
:10080800047B7047A4060020B406002090B482B090
:1008180000AF78603960184B00221A7020E0164B40
:100828001B781A467B681A44144B1968134B5B797A
:10083800DBB2581CC4B2114844710B4412781A70C8
:100848000E4BDB79DAB20D4B5B79DBB21340DAB2CF
:100858000A4B5A71084B1B780133DAB2064B1A70EF
:10086800054B1B781A463B689342D8D800BF00BF97
:100878000837BD4690BC7047A0060020B80300208A
:1008880080B485B000AF78607B685B79FB73EDE07E
:100898007B689B7A062B00F2D28001A252F823F0E3
:1008A800C5080008E5080008230900084F090008E2
:1008B8007B09000893090008F70900087B681B6892
:1008C8007A68127913441B78552B40F0BC807B68FA
:1008D80001229A727B680522DA72B4E07B681B6891
:1008E8007A68127913441B784E2B03D17B68022255
:1008F8009A72AAE07B681B687A68127913441B789D
:10090800552B00F0A2807B6800229A727B681B79C5
:10091800013BDAB27B681A7197E07B681B687A68DA
:10092800127913441B78452B03D17B6803229A72F2
:100938008EE07B6800229A727B681B79013BDAB2F1
:100948007B681A7184E07B681B687A6812791344A3
:100958001B78522B03D17B6804229A7278E07B685B
:1009680000229A727B681B79013BDAB27B681A71A4
:100978006EE07B681B687A68127913441A787B6882
:100988005A727B6805229A7262E07B681B687A68F3
:10099800127913441B783A2B1FD17B6806229A726E
:1009A8007B681B790133DAB27B689A717B689A7924
:1009B8007B68DB791340DAB27B689A717B68002226
:1009C8001A727B681A7A7B685B7A5340DBB283F0D1
:1009D8003603DAB27B681A723AE07B6800229A72B0
:1009E8007B681B79013BDAB27B681A7130E07B685F
:1009F8005B7A013BDAB27B685A727B685B7A002BC0
:100A08000CD07B681A7A7B681B68796809790B4473
:100A18001B785340DAB27B681A7218E07B680022B0
:100A28009A727B681B687A68127913441A787B6813
:100A38001B7A9A420BD17B6801221A7307E07B6804
:100A480000229A7204E000BF02E000BF00E000BF8D
:100A58007B681B790133DAB27B681A717B681A7973
:100A68007B68DB791340DAB27B681A717B681B7983
:100A7800FA7B9A427FF40CAF00BF00BF1437BD4623
:100A88005DF8047B704700BF80B582B000AF786026
:100A980039607B681B687A68927913441B78A52BA8
:100AA80012D0F02B40F01A810222F021386800F0B1
:100AB80035F90D21386800F0E1F93B68DB79194612
:100AC800386800F0DBF91FE1914B1A88914B1A80C6
:100AD8001D22A521386800F021F98E4B1B78194694
:100AE800386800F0CBF98B4B5B781946386800F012
:100AF800C5F9874B5A88874B1A80864B1B7819464D
:100B0800386800F0BBF9834B5B781946386800F009
:100B1800B5F97F4B9A887F4B1A807E4B1B78194614
:100B2800386800F0ABF97B4B5B781946386800F001
:100B3800A5F9774BDA88774B1A80764B1B781946DC
:100B4800386800F09BF9734B5B781946386800F0F9
:100B580095F96F4B1A896F4B1A806E4B1B781946A3
:100B6800386800F08BF96B4B5B781946386800F0F1
:100B780085F9674B5A89674B1A80664B1B7819466B
:100B8800386800F07BF9634B5B781946386800F0E9
:100B980075F95F4B9A895F4B1A805E4B1B78194633
:100BA800386800F06BF95B4B5B781946386800F0E1
:100BB80065F9574BDA89574B1A80564B1B781946FB
:100BC800386800F05BF9534B5B781946386800F0D9
:100BD80055F9514BB3F938204E4B1A804D4B93F9C8
:100BE8000030DBB21946386800F048F9494B93F9F0
:100BF8000130DBB21946386800F040F9464BB3F9CA
:100C08003A20444B1A80434B93F90030DBB2194623
:100C1800386800F033F93F4B93F90130DBB21946DD
:100C2800386800F02BF93C4BB3F93C20394B1A805B
:100C3800384B93F90030DBB21946386800F01EF9DA
:100C4800344B93F90130DBB21946386800F016F9D5
:100C5800314BB3F93E202F4B1A802E4B93F90030BD
:100C6800DBB21946386800F009F92A4B93F90130CC
:100C7800DBB21946386800F001F9274BB3F9402078
:100C8800244B1A80234B93F90030DBB2194638689D
:100C980000F0F4F81F4B93F90130DBB219463868BD
:100CA80000F0ECF81C4BB3F942201A4B1A80194B90
:100CB80093F90030DBB21946386800F0DFF8154BBD
:100CC80093F90130DBB21946386800F0D7F83B6871
:100CD800DB791946386800F0D1F815E07B681B68A5
:100CE8007A68927913441B7802221946386800F012
:100CF80015F8FF21386800F0C1F83B68DB79194620
:100D0800386800F0BBF800BF00BF0837BD4680BD9B
:100D1800B4060020D4060020D405002080B483B097
:100D280000AF78600B46FB701346BB707B680022EF
:100D3800DA717B681A687B685B79591CC8B2796874
:100D48004871134455221A707B685A797B689B79DD
:100D58001340DAB27B685A717B681A687B685B79E2
:100D6800591CC8B27968487113444E221A707B68BE
:100D78005A797B689B791340DAB27B685A717B6831
:100D88001A687B685B79591CC8B279684871134442
:100D980045221A707B685A797B689B791340DAB2CE
:100DA8007B685A717B681A687B685B79591CC8B282
:100DB80079684871134452221A707B685A797B68A3
:100DC8009B791340DAB27B685A717B681A687B6832
:100DD8005B79591CC8B2796848711344BA780132F2
:100DE800D2B21A707B685A797B689B791340DAB261
:100DF8007B685A717B681A687B685B79591CC8B232
:100E08007968487113443A221A707B685A797B686A
:100E18009B791340DAB27B685A717B681A687B68E1
:100E28005B79591CC8B2796848711344FA781A700A
:100E38007B685A797B689B791340DAB27B685A7170
:100E48007B68DB795AB2BB780133DBB25BB25340C3
:100E58005BB2DAB27B68DA717B68DA79FB78534087
:100E6800DBB283F03603DAB27B68DA717B68DB7950
:100E780018460C37BD465DF8047B704780B483B0D4
:100E880000AF78600B46FB707B681A687B685B79FB
:100E9800591CC8B2796848711344FA781A707B688B
:100EA8005A797B689B791340DAB27B685A717B6800
:100EB800DA79FB785340DAB27B68DA717B68DB79E0
:100EC80018460C37BD465DF8047B704780B584B082
:100ED80002AF012000F0D6FE32215A2000F04AFF6E
:100EE8000023FB713AE00023BB7131E0FB791F4A14
:100EF80032F81320BB791E4931F813309A4224D8AE
:100F0800FB79DB0005333B603B6898B23B689AB2DB
:100F1800BB791849CB5C1946002300930B463B214B
:100F280000F03EFF3B689BB2013398B23B689BB22E
:100F380001339AB2BB790F49CB5C19460023009361
:100F48000B463B2100F02CFF05E0BB790133BB7158
:100F5800BB792C2BCAD9FB790133FB71FB79072BA1
:100F6800C1D900BF00BF0837BD4680BDB406002008
:100F7800DCE00008B4E0000880B500AF01F03AFBFF
:100F880000F0A6F800F0F6FA00F0B6FA00F008F95A
:100F98000CF0B4FA00F08CFA00F066FA00F0B4F93C
:100FA80000F0E0F9384808F0DFF8384808F0DCF8D5
:100FB8003749384801F00CF83749384800F036FD11
:100FC8003749344800F01CFD00F046FD35480CF068
:100FD800E7FB354B00221A70344B354A1A60334B05
:100FE80000221A71314B00225A71304B00229A723A
:100FF8002E4BFF22DA712F4B00221A722D4B2E4AEC
:101008001A602C4B00221A712A4B00225A71294B64
:10101800FF229A71294800F069FC284B012283F8C5
:101028003420274B1B78002B0ED1254B28221A7011
:10103800244B1B78013BDAB2224B1A70224B1B78E7
:10104800013BDAB2204B1A701E4B1B78002B06D1DD
:101058001C4B0A221A70FFF739FF00F0DFFF1A4B0A
:101068001B78002B09D1FFF7F9FA174B19221A70D0
:101078004FF40051154802F0CEFE0E490B4800F01F
:1010880007FB00F099FDCCE770030020280300203F
:1010980071170008391700081D180008A51700085F
:1010A800E517000815080008A0060020B80300206E
:1010B800D4030020C8030020D4040020D405002055
:1010C800000000200100002002000020000802406B
:1010D80080B594B000AF07F12003302200211846F4
:1010E8000CF088FF07F10C0300221A605A609A601E
:1010F800DA601A610023BB60274B1B6C264A43F059
:1011080080531364244B1B6C03F08053BB60BB6893
:1011180000237B60214B1B68204A43F44043136043
:101128001E4B1B6803F440437B607B6801233B62D2
:101138004FF480337B620223BB634FF48003FB636D
:1011480019233B64C0237B640223BB640423FB6430
:1011580007F12003184607F073FB0346002B01D064
:1011680000F078FB0F23FB6002233B6100237B61C7
:101178004FF48053BB610023FB6107F10C0303218B
:10118800184607F0D5FD0346002B01D000F062FB9E
:1011980000BF5037BD4680BD003802400070004097
:1011A80080B584B000AF3B4600221A605A609A604E
:1011B800DA60524B524A1A60504B4FF480325A60F0
:1011C8004E4B00229A604D4B01221A614B4B002274
:1011D8001A764A4B002283F82020484B0022DA6214
:1011E800464B484A9A62454B0022DA60434B082234
:1011F800DA61424B002283F83020404B01225A61C9
:101208003E4801F08DFA0346002B01D000F022FB86
:1012180000233B6001237B600323BB603B461946E8
:10122800364801F0E3FC0346002B01D000F012FB26
:1012380001233B6002237B603B4619462F4801F09F
:10124800D5FC0346002B01D000F004FB02233B60D1
:1012580003237B603B461946284801F0C7FC034638
:10126800002B01D000F0F6FA03233B6004237B60D7
:101278003B461946214801F0B9FC0346002B01D032
:1012880000F0E8FA04233B6005237B603B461946DF
:101298001A4801F0ABFC0346002B01D000F0DAFA43
:1012A80005233B6006237B603B461946134801F043
:1012B8009DFC0346002B01D000F0CCFA06233B60CE
:1012C80007237B603B4619460C4801F08FFC034618
:1012D800002B01D000F0BEFA07233B6008237B6097
:1012E8003B461946054801F081FC0346002B01D016
:1012F80000F0B0FA00BF1037BD4680BD24010020C1
:10130800002001400100000F80B500AF124B134AC6
:101318001A60114B124A5A600F4B00229A600E4B0A
:101328000022DA600C4B4FF480421A610A4B00220B
:101338005A61094B00229A61074B0022DA61064B79
:1013480000221A62044802F081FD0346002B01D0F6
:1013580000F080FA00BF80BDCC010020005400409E
:10136800801A060080B58EB000AF07F1280300226E
:101378001A605A609A60DA6007F1200300221A6046
:101388005A603B1D00221A605A609A60DA601A613E
:101398005A619A61324B334A1A60314B0F225A60B4
:1013A8002F4B00229A602E4B4EF65F22DA602C4BB0
:1013B80000221A612A4B00229A61294807F084FE0C
:1013C8000346002B01D000F045FA4FF48053BB626E
:1013D80007F128031946224808F034F90346002B80
:1013E80001D000F037FA1E4807F020FF0346002B13
:1013F80001D000F02FFA00233B6200237B6207F143
:1014080020031946164808F0B9FC0346002B01D002
:1014180000F020FA60237B600023BB600023FB60A0
:1014280000237B613B1D002219460D4808F048F84F
:101438000346002B01D000F00DFA3B1D042219468B
:10144800074808F03DF80346002B01D000F002FAE7
:10145800034800F0BDFF00BF3837BD4680BD00BF60
:10146800E00200200004004080B500AF0E4B0F4A98
:101478001A600D4B2F225A600B4B00229A600A4BC0
:1014880040F2E732DA60084B00221A61064B00226C
:101498009A61054807F018FE0346002B01D000F0BA
:1014A800D9F900BF80BD00BF2803002000440140D7
:1014B80080B500AF0E4B0F4A1A600D4B00225A60E0
:1014C8000B4B00229A600A4B45F6BF52DA60084B74
:1014D80000221A61064B00229A61054807F0F4FDC4
:1014E8000346002B01D000F0B5F900BF80BD00BF56
:1014F800700300200048014080B582B000AF00238F
:101508007B601B4B1B6B1A4A43F480031363184B15
:101518001B6B03F480037B607B6800233B60144BE8
:101528001B6B134A43F400131363114B1B6B03F437
:1015380000133B603B68002200210B2001F0EBFE0A
:101548000B2001F004FF002200210C2001F0E3FE33
:101558000C2001F0FCFE00220021382001F0DBFE07
:10156800382001F0F4FE00BF0837BD4680BD00BF3B
:101578000038024080B58AB000AF07F1140300229A
:101588001A605A609A60DA601A6100233B613C4B2A
:101598001B6B3B4A43F004031363394B1B6B03F08B
:1015A80004033B613B690023FB60354B1B6B344AEA
:1015B80043F080031363324B1B6B03F08003FB6023
:1015C800FB680023BB602E4B1B6B2D4A43F00103C5
:1015D80013632B4B1B6B03F00103BB60BB68002339
:1015E8007B60274B1B6B264A43F002031363244B93
:1015F8001B6B03F002037B607B6800224FF40051F1
:10160800204802F0EFFB00224FF400411E4802F090
:10161800E9FB00224FF442711C4802F0E3FB4FF44F
:1016280000537B610123BB610023FB6100233B6204
:1016380007F114031946134802F050FA4FF4004317
:101648007B610123BB610023FB6100233B6207F13F
:10165800140319460C4802F041FA4FF442737B61B7
:101668000123BB610023FB6100233B6207F11403E4
:101678001946064802F032FA00BF2837BD4680BD39
:101688000038024000080240000002400004024006
:1016980080B582B000AF786039607B681B7B002B17
:1016A80006D07B6800221A7339687868FFF7ECF96E
:1016B8007B681A797B685B799A4202D07868FFF771
:1016C800DFF83B681A793B685B799A422BD03B6814
:1016D8005A793B681B799A4208D93B685A793B6822
:1016E8001B79D31ADAB23B681A7206E03B681B7999
:1016F800C3F10403DAB23B681A723B681B683A68A4
:1017080012791A443B681B7A194610460CF010F8F7
:101718000346002B07D13B681A793B681B7A1344B0
:10172800DAB23B681A7100BF0837BD4680BD0000B9
:1017380080B586B002AFBA601A460346FB810B46F5
:10174800BB811346FB80BA89F989FB880193BB6882
:1017580000930123034803F0FDF8012318461037CE
:10176800BD4680BDCC01002080B586B002AFB9600F
:101778007B600346FB811346BB81BA89F9897B6884
:1017880000931346BA68044802F0BAFC03461846A8
:101798001037BD4680BD00BFCC01002080B588B0A1
:1017A80004AF7B600346FB810B46BB8113467B81FC
:1017B8007889BA89F9894FF47A7302933B8B01933C
:1017C8007B6800930346044802F092FE0123184602
:1017D8001037BD4680BD00BFCC01002080B586B063
:1017E80002AFBA601A460346FB810B46BB8113461B
:1017F800FB80BA89F989FB880193BB6800930123B0
:10180800034803F005FA012318461037BD4680BD8A
:10181800CC01002080B586B004AF3B600346FB8056
:101828000B467B7113463B717B799AB23B7998B230
:10183800F9887B6902933B8A01933B6800930346CE
:10184800034802F05BFD034618460837BD4680BDD5
:10185800CC01002080B400AF72B600BF00BFFDE726
:1018680080B485B000AFF860B9601346FB71FB68BF
:101878001B881A46BB68934231D0FB79012B03D1F0
:10188800FB6803229A702BE0FB689B881A46BB68AA
:10189800934202DDFB689B88BB60BB68002B09DABA
:1018A800FB6801229A70BB689BB25B429AB2FB68E4
:1018B8001A8015E0BB68002B07DDFB6800229A70D0
:1018C800BB689AB2FB681A800AE0BB68002B07D194
:1018D800FB6802229A70FB6800221A8000E000BFB1
:1018E8001437BD465DF8047B7047000090B587B09B
:1018F80002AF78607B68012283F834202F4B1C6884
:1019080007F10F030122009201227521D020A04780
:10191800FB7B682B4CD10023BB73294B1C6807F158
:101928000E034FF47A7201920122009201226B2178
:10193800D020A0470723BB73214B1C6807F10E0377
:101948004FF47A7201920122009201221921D020CB
:10195800A0470023BB731A4B1C6807F10E034FF412
:101968007A7201920122009201221C21D020A04704
:101978000023BB73124B1C6807F10E034FF47A72F5
:1019880001920122009201221B21D020A0470323AB
:10199800BB730B4B1C6807F10E034FF47A7201926C
:1019A8000122009201221A21D020A047002300E042
:1019B800012318461437BD4690BD00BFE00600203D
:1019C800E406002090B583B000AF78607B6893F898
:1019D8003430002B0DD0094B1C687B6803F12602BC
:1019E8000E233B21D020A0477B68002283F83420B7
:1019F80000E000BF0C37BD4690BD00BFD8060020F0
:101A080080B483B000AF78603960064A7B681360A1
:101A1800054A3B68136000BF0C37BD465DF8047B80
:101A2800704700BFDC060020D806002080B483B0D1
:101A380000AF78603960064A7B681360054A3B68E6
:101A4800136000BF0C37BD465DF8047B704700BFCC
:101A5800E0060020E406002080B500AFAE22002199
:101A6800782000F099FA20220021782000F094FADA
:101A780010220021782000F08FFAB022002178206F
:101A880000F08AFAC8220021782000F085FA0022A6
:101A98000021782000F080FA10220021782000F040
:101AA8007BFA40220021782000F076FA812200217A
:101AB800782000F071FAFF220021782000F06CFAFB
:101AC800A1220021782000F067FAA62200217820C0
:101AD80000F062FAA8220021782000F05DFA3F2287
:101AE8000021782000F058FAA4220021782000F084
:101AF80053FAD3220021782000F04EFA0022002168
:101B0800782000F049FAD5220021782000F044FA24
:101B1800F0220021782000F03FFAD9220021782015
:101B280000F03AFA22220021782000F035FADA2271
:101B38000021782000F030FA12220021782000F0ED
:101B48002BFADB220021782000F026FA202200213F
:101B5800782000F021FA8D220021782000F01CFA6C
:101B680014220021782000F017FAAF2200217820F3
:101B780000F012FA2E220021782000F00DFA0D4B09
:101B880000221A800B4B00225A800A4B01225A71FC
:101B9800084B00229A71074B0022DA71054B01228B
:101BA8001A74044B00225A74002000F06BF800BF2E
:101BB80080BD00BFF00A002098B500AF2D4B5B7CBC
:101BC800002B55D02B4B1B7C002B51D0294BDB799C
:101BD800002B1CD0012B37D1274B1C68254B9B7938
:101BE800DB01264A1A44802340217820A047034677
:101BF800012B2DD11F4B9B790133DAB21D4B9A7102
:101C08001C4B0022DA711B4B00225A7420E0194B3E
:101C18009B79503BDAB2174B1A72164B00225A7254
:101C2800144B10229A72144B1C680323144A002187
:101C38007820A0470346012B0CD10E4B0122DA7104
:101C48000C4B00225A7405E00A4B08229A7102E0F4
:101C580000BF00E000BF074B9B79072B08D9054B55
:101C680000229A71034B00221A74024B00225A7404
:101C780000BF98BDF00A0020E80A0020E80600200E
:101C8800F80A002080B582B000AF0346FB71FB79EB
:101C9800002B01D1002300E0FF234FF48062194696
:101CA80003480CF0A7F900BF0837BD4680BD00BF48
:101CB800E806002080B483B000AF0346FB800B46E3
:101CC800BB801346FB70FB887F2B48D8BB883F2B13
:101CD80045D8264B1B79002B06D0FB78002B0CBF70
:101CE80001230023DBB2FB70FB78012B1AD1FA88A1
:101CF800BB88DB0898B20346DB0113441C4AD35C5B
:101D08005AB2BB8803F00703012101FA03F35BB25F
:101D1800134359B2FA880346DB011344C9B2144A83
:101D2800D1541DE0FA88BB88DB0898B20346DB0172
:101D380013440F4AD35C5AB2BB8803F0070301214E
:101D480001FA03F35BB2DB435BB2134059B2FA8882
:101D58000346DB011344C9B2054AD15400E000BF71
:101D68000C37BD465DF8047B704700BFF00A0020C1
:101D7800E806002080B483B000AF03460A46FB8023
:101D88001346BB80054AFB881380044ABB885380EE
:101D980000BF0C37BD465DF8047B7047F00A002091
:101DA80090B587B000AF0446084611461A46234648
:101DB800FB800346BB800B467B8013463B80FB8839
:101DC8007F2B01D97F23FB807B887F2B01D97F2341
:101DD8007B80BB883F2B01D93F23BB803B883F2BAF
:101DE80001D93F233B80FA887B889A4205D27A88BA
:101DF800FB88D31A9BB21BB204E0FA887B88D31AFB
:101E08009BB21BB27B82BA883B889A4205D23A8839
:101E1800BB88D31A9BB21BB204E0BA883B88D31A9A
:101E28009BB21BB23B82FA887B889A4201D201237B
:101E380001E04FF0FF33FB81BA883B889A4201D218
:101E4800012301E04FF0FF33BB81B7F91220B7F946
:101E580010309A4206DDB7F91230DA0F13445B10DE
:101E68001BB206E0B7F91030DA0F13445B105B427F
:101E78001BB2FB82B7F91230002B29D13A88BB88F4
:101E88009A4205D23B883B81BB883B803B89BB801B
:101E98007A88FB889A4205D27B883B81FB887B80C5
:101EA8003B89FB80BB88BB820CE0B98A97F8282065
:101EB800FB881846FFF7FEFEB7F914309BB20133D2
:101EC8009BB2BB82B7F914203B889A42EDDD5FE0F4
:101ED800B7F91030002B29D13A88BB889A4205D22D
:101EE8003B883B81BB883B803B89BB807A88FB88E9
:101EF8009A4205D27B883B81FB887B803B89FB80AB
:101F0800FB88BB820CE0BB8A97F82820B988184662
:101F1800FFF7D0FEB7F914309BB201339BB2BB82F6
:101F2800B7F914207B889A42EDDD31E097F8282034
:101F3800B988FB881846FFF7BDFEFA887B889A4265
:101F480003D1BA883B889A4221D0FB8A7B81B7F9B2
:101F58000A20B7F912305B429A4208DDFA8A3B8AB6
:101F6800D31A9BB2FB82FA89FB881344FB80B7F92A
:101F78000A20B7F910309A42D8DAFA8A7B8A1344D1
:101F88009BB2FB82BA89BB881344BB80CEE700BFF3
:101F98001C37BD4690BD000090B585B000AF034624
:101FA800FB710B46BB7113467B71BB793B737B7925
:101FB8007B73064B1C68FB7998B207F10C010A2366
:101FC8000222A04700BF1437BD4690BDEC0A00208E
:101FD80080B483B000AF78603960064A7B681360CC
:101FE800054A3B68136000BF0C37BD465DF8047BAB
:101FF800704700BFE80A0020EC0A002080B483B0D4
:1020080000AF0346FB71044AFB79537400BF0C37D9
:10201800BD465DF8047B7047F00A002080B400AF2D
:10202800034B01221A7400BFBD465DF8047B70475C
:10203800F00A002080B582B000AF00237B60134B0C
:102048005B6C124A43F480435364104B5B6C03F49B
:1020580080437B607B6800233B600C4B1B6C0B4A06
:1020680043F080531364094B1B6C03F080533B60AF
:102078003B6800220021512001F04DF9512001F068
:1020880066F900BF0837BD4680BD00BF0038024072
:1020980080B58AB000AF786007F1140300221A6097
:1020A8005A609A60DA601A617B681B68334A934207
:1020B8005FD100233B61324B5B6C314A43F4807340
:1020C80053642F4B5B6C03F480733B613B690023C3
:1020D800FB602B4B1B6B2A4A43F001031363284B0D
:1020E8001B6B03F00103FB60FB68FF237B61032389
:1020F800BB610023FB6107F114031946214801F075
:10210800EDFC214B214A1A601F4B00225A601E4BDE
:1021180000229A601C4B0022DA601B4B4FF480624D
:102128001A61194B4FF400625A61174B4FF4005271
:102138009A61154B0022DA61134B4FF400321A6290
:10214800114B00225A62104801F01CF90346002B7B
:1021580001D0FFF77FFB7B680B4A9A630A4A7B68CA
:10216800936300220021122001F0D5F8122001F01B
:10217800EEF800BF2837BD4680BD00BF00200140F3
:1021880000380240000002406C0100201064024048
:1021980080B58AB000AF786007F1140300221A6096
:1021A8005A609A60DA601A617B681B684F4A9342EA
:1021B80040F0978000233B614D4B1B6B4C4A43F02A
:1021C800020313634A4B1B6B03F002033B613B6939
:1021D800C0237B611223BB610023FB6103233B62A5
:1021E80004237B6207F114031946424801F076FC88
:1021F8000023FB603E4B1B6C3D4A43F40013136401
:102208003B4B1B6C03F40013FB60FB683A4B3B4AE7
:102218001A60394B00225A60374B40229A60364B7D
:102228000022DA60344B4FF480621A61324B00228C
:102238005A61314B00229A612F4B0022DA612E4BF2
:1022480000221A622C4B00225A622B4801F09AF89D
:102258000346002B01D0FFF7FDFA7B68264A5A6334
:10226800254A7B689363264B264A1A60244B4FF015
:1022780000725A60224B00229A60214B0022DA60D9
:102288001F4B4FF480621A611D4B00225A611C4B90
:1022980000229A611A4B0022DA61194B00221A6255
:1022A800174B00225A62164801F06CF80346002BBF
:1022B80001D0FFF7CFFA7B68114A9A63104A7B680E
:1022C8009363002200211F2001F025F81F2001F050
:1022D8003EF800220021202001F01DF8202001F006
:1022E80036F800BF2837BD4680BD00BF0054004007
:1022F800003802400004024020020020286002400A
:10230800800200201060024080B586B000AF78607F
:102318007B681B682A4A934216D100237B61294BAC
:102328001B6C284A43F002031364264B1B6C03F012
:1023380002037B617B69002200211D2000F0EBFF76
:102348001D2001F004F836E07B681B681E4A9342A2
:1023580016D100233B611B4B5B6C1A4A43F40033D4
:102368005364184B5B6C03F400333B613B690022F8
:102378000021192000F0CFFF192000F0E8FF1AE033
:102388007B681B68114A934215D10023FB600D4BF3
:102398005B6C0C4A43F4802353640A4B5B6C03F474
:1023A8008023FB60FB68002200211A2000F0B3FFA5
:1023B8001A2000F0CCFF00BF1837BD4680BD00BF13
:1023C8000004004000380240004401400048014039
:1023D80080B588B000AF786007F10C0300221A605E
:1023E8005A609A60DA601A617B681B68124A9342E5
:1023F8001DD10023BB60114B1B6B104A43F0020335
:1024080013630E4B1B6B03F00203BB60BB683023E6
:10241800FB6002233B6100237B610023BB61022335
:10242800FB6107F10C031946054801F057FB00BF93
:102438002037BD4680BD00BF000400400038024080
:102448000004024080B400AF00BFFDE780B400AFD5
:1024580000BFFDE780B400AF00BFFDE780B400AF68
:1024680000BFFDE780B400AF00BFFDE780B400AF58
:1024780000BFBD465DF8047B704780B400AF00BF65
:10248800BD465DF8047B704780B400AF00BFBD4611
:102498005DF8047B704780B500AF00F0FDF800BF21
:1024A80080BD000080B500AF024801F093F800BF7E
:1024B80080BD00BF8002002080B500AF024801F057
:1024C80089F800BF80BD00BF2002002080B500AFA2
:1024D800024800F068F900BF80BD00BF2401002059
:1024E80080B500AF024806F0FAFE00BF80BD00BF0D
:1024F8002803002080B500AF024806F0F0FE00BFB8
:1025080080BD00BF7003002080B500AF024806F010
:10251800E6FE00BF80BD00BFE002002080B500AF2E
:10252800024802F005FD00BF80BD00BFCC010020BD
:1025380080B500AF024802F06CFE00BF80BD00BF4E
:10254800CC01002080B500AF024801F043F800BF7D
:1025580080BD00BF6C01002080B500AF024805F0C7
:1025680060F800BF80BD00BFEC13002080B400AF4E
:1025780000BFBD465DF8047B7047000080B400AF23
:10258800064BD3F88830054A43F47003C2F8883004
:1025980000BFBD465DF8047B704700BF00ED00E05A
:1025A800DFF834D0FFF7EAFF0C480D490D4A002345
:1025B80002E0D458C4500433C4188C42F9D30A4AF0
:1025C8000A4C002301E013600432A242FBD30BF053
:1025D80019FDFEF7D1FC7047000002200000002022
:1025E800080100205CE1000808010020F01A002022
:1025F800FEE7000080B500AF0E4B1B680D4A43F4A0
:10260800007313600B4B1B680A4A43F48063136022
:10261800084B1B68074A43F480731360032000F0DB
:102628006FFE0F2000F008F8FFF704FD002318469E
:1026380080BD00BF003C024080B582B000AF78602A
:10264800124B1A68124B1B7819464FF47A73B3FB76
:10265800F1F3B2FBF3F3184600F087FE0346002BB4
:1026680001D001230EE07B680F2B0AD8002279687D
:102678004FF0FF3000F04FFE064A7B6813600023DE
:1026880000E0012318460837BD4680BD040000203D
:102698000C0000200800002080B400AF064B1B7817
:1026A8001A46064B1B681344044A136000BFBD4614
:1026B8005DF8047B704700BF0C000020040B00206D
:1026C80080B400AF034B1B681846BD465DF8047B19
:1026D800704700BF040B002080B584B000AF78605D
:1026E800FFF7EEFFB8607B68FB60FB68B3F1FF3F64
:1026F80005D00A4B1B781A46FB681344FB6000BFE1
:10270800FFF7DEFF0246BB68D31AFA689A42F7D889
:1027180000BF00BF1037BD4680BD00BF0C000020C1
:1027280080B584B000AF78600023FB737B68002B12
:1027380001D1012333E07B681B6C002B09D1786839
:10274800FFF7A6FC7B6800225A647B68002283F8A6
:102758003C207B681B6C03F01003002B18D17B68AE
:102768001B6C23F4885323F0020343F002027B68B6
:102778001A64786800F06CFB7B6800225A647B68F6
:102788001B6C23F0030343F001027B681A6401E029
:102798000123FB737B68002283F83C20FB7B1846EF
:1027A8001037BD4680BD80B586B000AF7860002385
:1027B8007B6100233B617B681B681B68FB607B684F
:1027C8001B685B68BB60FB6803F002037B61BB6846
:1027D80003F020033B617B69002B49D03B69002B48
:1027E80046D07B681B6C03F01003002B05D17B6877
:1027F8001B6C43F400727B681A647B681B689B68D7
:1028080003F04053002B2BD17B681B7E002B27D174
:102818007B681B68DB6A03F47003002B06D07B68B7
:102828001B689B6803F48063002B19D17B681B68C5
:102838005A687B681B6822F020025A607B681B6C10
:1028480023F480727B681A647B681B6C03F48053E2
:10285800002B05D17B681B6C43F001027B681A646E
:102868007868FDF7A5FF7B681B686FF012021A6095
:10287800FB6803F004037B61BB6803F080033B61E2
:102888007B69002B57D03B69002B54D07B681B6CAD
:1028980003F01003002B05D17B681B6C43F4005236
:1028A8007B681A647B681B689B6803F44013002BE1
:1028B80039D17B681B689B6B03F44013002B06D04F
:1028C8007B681B689B6803F48063002B2BD17B68B3
:1028D8001B685B6803F48063002B24D17B681B684A
:1028E8009B6803F04053002B1DD17B681B7E002B97
:1028F80019D17B681B685A687B681B6822F08002C4
:102908005A607B681B6C23F480527B681A647B686E
:102918001B6C03F48073002B05D17B681B6C43F0A0
:1029280001027B681A64786800F010FC7B681B68F9
:102938006FF00C021A60FB6803F001037B61BB684F
:1029480003F040033B617B69002B17D03B69002BE8
:1029580014D07B681B681B6803F00103012B0DD1A1
:102968007B681B6C43F480327B681A64786800F0DB
:1029780029F97B681B686FF001021A60FB6803F095
:1029880020037B61BB6803F080633B617B69002B9C
:1029980015D03B69002B12D07B685B6C43F00202B8
:1029A8007B685A647B681B686FF020021A6078683D
:1029B80000F012F97B681B686FF020021A6000BFF4
:1029C8001837BD4680BD000080B588B000AFF860FC
:1029D800B9607A6000237B610023FB77FB6893F87A
:1029E8003C30012B01D10223D0E0FB68012283F89F
:1029F8003C20FB681B689B6803F00103012B18D07F
:102A0800FB681B689A68FB681B6842F001029A60C1
:102A1800604B1B68604AA2FB03239A0C13465B00B9
:102A280013447B6102E07B69013B7B617B69002B7E
:102A3800F9D1FB681B689B6803F48073B3F5807F4A
:102A480007D1FB681B689A68FB681B6822F48072D0
:102A58009A60FB681B689B6803F00103012B40F038
:102A68008880FB681B6C23F4E06323F0010343F4C4
:102A78008072FB681A64FB681B685B6803F48063F8
:102A8800002B07D0FB681B6C23F4405343F480529F
:102A9800FB681A64FB681B6C03F48053B3F5805F12
:102AA80006D1FB685B6C23F00602FB685A6402E0FF
:102AB800FB6800225A64FB68002283F83C20374BED
:102AC800BB61FB689B6B364ADA63FB689B6B354AD4
:102AD8001A64FB689B6B344ADA64FB681B686FF006
:102AE80022021A60FB681B685A68FB681B6842F080
:102AF80080625A60FB681B689A68FB681B6842F42E
:102B080080729A60FB68986BFB681B684C331946A7
:102B1800BA687B6800F0E4FC0346FB77BB695B6836
:102B280003F01F03002B0FD1FB681B689B6803F0A1
:102B38004053002B29D1FB681B689A68FB681B6807
:102B480042F080429A6020E0FB681B68174A934273
:102B58001BD1FB681B689B6803F04053002B14D102
:102B6800FB681B689A68FB681B6842F080429A60A1
:102B78000BE0FB681B6C43F01002FB681A64FB68EF
:102B88005B6C43F00102FB685A64FB7F18462037F0
:102B9800BD4680BD0400002083DE1B4300230140A6
:102BA800513000080B31000827310008002001408F
:102BB80080B483B000AF786000BF0C37BD465DF8C5
:102BC800047B704780B483B000AF786000BF0C37D7
:102BD800BD465DF8047B704780B483B000AF786071
:102BE80000BF0C37BD465DF8047B704780B485B0E4
:102BF80000AF786039600023BB607B6893F83C3095
:102C0800012B01D1022313E17B68012283F83C20C8
:102C18003B681B68092B25D97B681B68D9683B680A
:102C28001B689BB21A4613465B0013441E3B0722DF
:102C380002FA03F3DA437B681B680A40DA607B68B0
:102C48001B68D9683B689A683B681B689BB2184642
:102C580003465B0003441E3B9A407B681B680A439B
:102C6800DA6022E07B681B6819693B681B689BB2C5
:102C78001A4613465B001344072202FA03F3DA43A9
:102C88007B681B680A401A617B681B6819693B6886
:102C98009A683B681B689BB2184603465B0003446E
:102CA8009A407B681B680A431A613B685B68062B7D
:102CB80024D87B681B68596B3B685A6813469B008D
:102CC8001344053B1F2202FA03F3DA437B681B68AF
:102CD8000A405A637B681B68596B3B681B689BB248
:102CE80018463B685A6813469B001344053B00FA94
:102CF80003F27B681B680A435A634CE03B685B68D5
:102D08000C2B24D87B681B68196B3B685A681346E0
:102D18009B001344233B1F2202FA03F3DA437B6828
:102D28001B680A401A637B681B68196B3B681B6841
:102D38009BB218463B685A6813469B001344233BD2
:102D480000FA03F27B681B680A431A6323E07B6876
:102D58001B68D96A3B685A6813469B001344413B79
:102D68001F2202FA03F3DA437B681B680A40DA621F
:102D78007B681B68D96A3B681B689BB218463B682E
:102D88005A6813469B001344413B00FA03F27B68E0
:102D98001B680A43DA62294BFB607B681B68284A78
:102DA80093420FD13B681B68122B0BD1FB685B6801
:102DB80023F40002FB685A60FB685B6843F48002F6
:102DC800FB685A607B681B681D4A93422BD13B689D
:102DD8001B681C4A934203D03B681B68112B22D105
:102DE800FB685B6823F48002FB685A60FB685B68D9
:102DF80043F40002FB685A603B681B68114A93421F
:102E080011D1114B1B68114AA2FB03239A0C1346DC
:102E18009B0013445B00BB6002E0BB68013BBB60E6
:102E2800BB68002BF9D17B68002283F83C20002383
:102E380018461437BD465DF8047B704700230140EF
:102E480000200140120000100400002083DE1B4314
:102E580080B485B000AF7860794BFB60FB685B6835
:102E680023F44032FB685A60FB685A687B685B68E9
:102E78001A43FB685A607B681B685A687B681B6842
:102E880022F480725A607B681B6859687B681B69EA
:102E98001A027B681B680A435A607B681B685A6879
:102EA8007B681B6822F040725A607B681B6859680F
:102EB8007B689A687B681B680A435A607B681B6852
:102EC8009A687B681B6822F400629A607B681B68BA
:102ED80099687B68DA687B681B680A439A607B6834
:102EE8009B6A584A934222D07B681B689A687B6821
:102EF8001B6822F070629A607B681B6899687B681F
:102F08009A6A7B681B680A439A607B681B689A68A0
:102F18007B681B6822F040529A607B681B6899683E
:102F28007B68DA6A7B681B680A439A600FE07B68F3
:102F38001B689A687B681B6822F070629A607B68DD
:102F48001B689A687B681B6822F040529A607B680D
:102F58001B689A687B681B6822F002029A607B688B
:102F68001B6899687B681B7E5A007B681B680A434C
:102F78009A607B6893F82030002B1BD07B681B6815
:102F88005A687B681B6842F400625A607B681B6859
:102F98005A687B681B6822F460425A607B681B6829
:102FA80059687B685B6A013B5A037B681B680A4364
:102FB8005A6007E07B681B685A687B681B6822F4C4
:102FC80000625A607B681B68DA6A7B681B6822F4B7
:102FD8007002DA627B681B68D96A7B68DB69013B2F
:102FE8001A057B681B680A43DA627B681B689A6863
:102FF8007B681B6822F400729A607B681B6899687A
:103008007B6893F830305A027B681B680A439A60E1
:103018007B681B689A687B681B6822F480629A60E8
:103028007B681B6899687B685B699A027B681B6888
:103038000A439A6000BF1437BD465DF8047B7047A9
:10304800002301400100000F80B584B000AF786014
:103058007B689B6BFB60FB681B6C03F05003002BC9
:103068003CD1FB681B6C43F40072FB681A64FB6874
:103078001B689B6803F04053002B2BD1FB681B7E19
:10308800002B27D1FB681B68DB6A03F47003002B55
:1030980006D0FB681B689B6803F48063002B19D17A
:1030A800FB681B685A68FB681B6822F020025A609C
:1030B800FB681B6C23F48072FB681A64FB681B6C4A
:1030C80003F48053002B05D1FB681B6C43F001020D
:1030D800FB681A64F868FDF76BFB0EE0FB681B6C75
:1030E80003F01003002B03D0F868FFF775FD04E028
:1030F800FB689B6BDB6C7868984700BF1037BD4650
:1031080080BD80B584B000AF78607B689B6BFB6046
:10311800F868FFF74DFD00BF1037BD4680BD80B58C
:1031280084B000AF78607B689B6BFB60FB684022D3
:103138001A64FB685B6C43F00402FB685A64F86825
:10314800FFF74AFD00BF1037BD4680BD80B483B08D
:1031580000AF786000BF0C37BD465DF8047B704750
:1031680080B485B000AF78607B6803F00703FB602C
:103178000C4BDB68BB60BA684FF6FF031340BB60BB
:10318800FB681A02BB68134343F0BF6343F4003380
:10319800BB60044ABB68D36000BF1437BD465DF806
:1031A800047B704700ED00E080B400AF044BDB689F
:1031B8001B0A03F007031846BD465DF8047B7047F9
:1031C80000ED00E080B483B000AF0346FB7197F9CF
:1031D8000730002B0BDBFB7903F01F02074997F937
:1031E80007305B09012000FA02F241F8232000BFF2
:1031F8000C37BD465DF8047B704700BF00E100E076
:1032080080B483B000AF03463960FB7197F907308B
:10321800002B0ADB3B68DAB20C4997F90730120138
:10322800D2B20B4483F800230AE03B68DAB20849BB
:10323800FB7903F00F03043B1201D2B20B441A7658
:1032480000BF0C37BD465DF8047B704700E100E025
:1032580000ED00E080B489B000AFF860B9607A6032
:10326800FB6803F00703FB61FB69C3F10703042B49
:1032780028BF0423BB61FB690433062B02D9FB6911
:10328800033B00E000237B614FF0FF32BB6902FA89
:1032980003F3DA43BB681A407B699A404FF0FF3169
:1032A8007B6901FA03F3D9437B680B401343184643
:1032B8002437BD465DF8047B7047000080B582B0B6
:1032C80000AF78607B68013BB3F1807F01D30123B5
:1032D8000FE00A4A7B68013B53600F214FF0FF3033
:1032E800FFF78EFF054B00229A60044B07221A60F5
:1032F800002318460837BD4680BD00BF10E000E037
:1033080080B582B000AF78607868FFF729FF00BF0A
:103318000837BD4680BD80B586B000AF0346B960AA
:103328007A60FB7300237B61FFF73EFF78617A6860
:10333800B9687869FFF78EFF024697F90F30114692
:103348001846FFF75DFF00BF1837BD4680BD80B542
:1033580082B000AF0346FB7197F907301846FFF7B4
:1033680031FF00BF0837BD4680BD80B582B000AFD1
:1033780078607868FFF7A2FF034618460837BD460D
:1033880080BD000080B586B000AF786000237B6107
:10339800FFF796F938617B68002B01D1012399E08A
:1033A8007B68022283F835207B68002283F834206A
:1033B8007B681B681A687B681B6822F001021A6028
:1033C8000FE0FFF77DF902463B69D31A052B08D9B0
:1033D8007B6820225A657B68032283F83520032303
:1033E80078E07B681B681B6803F00103002BE8D1B9
:1033F8007B681B681B687B617A69384B13407B616B
:103408007B685A687B689B681A437B68DB681A4349
:103418007B681B691A437B685B691A437B689B69F5
:103428001A437B68DB691A437B681B6A13437A6912
:1034380013437B617B685B6A042B07D17B68DA6A7C
:103448007B681B6B13437A6913437B617B681B683A
:103458007A691A607B681B685B697B617B6923F00A
:1034680007037B617B685B6A7A6913437B617B68CE
:103478005B6A042B17D17B689B6A7A6913437B616B
:103488007B68DB6A002B0ED0786800F0ABFA034645
:10349800002B08D07B6840225A657B68012283F89C
:1034A8003520012316E07B681B687A695A617868C1
:1034B80000F062FA0346FB607B68DB6D3F229A40AE
:1034C800FB689A607B6800225A657B68012283F852
:1034D8003520002318461837BD4680BD3F8010F0C0
:1034E80080B586B000AFF860B9607A603B600023B1
:1034F800FB75FB689B6D3B61FB6893F83430012BCF
:1035080001D1022340E0FB68012283F83420FB68E4
:1035180093F83530DBB2012B2FD1FB68022283F8F8
:103528003520FB6800225A653B687A68B968F868F4
:1035380000F0F4F9FB68DB6D3F229A403B699A6022
:10354800FB681B681A68FB681B6842F016021A6061
:10355800FB681B6C002B07D0FB681B681A68FB68AC
:103568001B6842F008021A60FB681B681A68FB684F
:103578001B6842F001021A6005E0FB68002283F82C
:1035880034200223FB75FB7D18461837BD4680BDE5
:1035980080B483B000AF78607B6893F83530DBB2D5
:1035A800022B04D07B6880225A6501230CE07B68DB
:1035B800052283F835207B681B681A687B681B68BE
:1035C80022F001021A60002318460C37BD465DF848
:1035D800047B704780B586B000AF78600023BB607D
:1035E8008E4B1B688E4AA2FB03239B0A7B617B6878
:1035F8009B6D3B613B691B68FB607B68DB6D082248
:103608009A40FB681340002B1AD07B681B681B6824
:1036180003F00403002B13D07B681B681A687B68CF
:103628001B6822F004021A607B68DB6D08229A404E
:103638003B699A607B685B6D43F001027B685A6561
:103648007B68DB6D01229A40FB681340002B12D087
:103658007B681B685B6903F08003002B0BD07B68D9
:10366800DB6D01229A403B699A607B685B6D43F091
:1036780002027B685A657B68DB6D04229A40FB680E
:103688001340002B12D07B681B681B6803F00203F1
:10369800002B0BD07B68DB6D04229A403B699A6053
:1036A8007B685B6D43F004027B685A657B68DB6D61
:1036B80010229A40FB681340002B43D07B681B689C
:1036C8001B6803F00803002B3CD07B68DB6D1022DD
:1036D8009A403B699A607B681B681B6803F48023E7
:1036E800002B18D07B681B681B6803F40023002B91
:1036F80008D17B681B6C002B24D07B681B6C786816
:1037080098471FE07B689B6C002B1BD07B689B6CE9
:103718007868984716E07B681B681B6803F4807319
:10372800002B07D17B681B681A687B681B6822F02E
:1037380008021A607B681B6C002B03D07B681B6C2B
:10374800786898477B68DB6D20229A40FB681340B5
:10375800002B00F08F807B681B681B6803F0100348
:10376800002B00F087807B68DB6D20229A403B6944
:103778009A607B6893F83530DBB2052B36D17B68CD
:103788001B681A687B681B6822F016021A607B683F
:103798001B685A697B681B6822F080025A617B6843
:1037A8001B6C002B03D17B689B6C002B07D07B68BC
:1037B8001B681A687B681B6822F008021A607B681D
:1037C800DB6D3F229A403B699A607B68012283F84F
:1037D80035207B68002283F834207B681B6D002B22
:1037E8007ED07B681B6D7868984779E07B681B689A
:1037F8001B6803F48023002B1DD07B681B681B68A3
:1038080003F40023002B0DD17B685B6C002B31D0B7
:103818007B685B6C786898472CE000BF0400002048
:10382800B5814E1B7B68DB6B002B23D07B68DB6B81
:10383800786898471EE07B681B681B6803F48073F0
:10384800002B0FD17B681B681A687B681B6822F005
:1038580010021A607B68012283F835207B680022F9
:1038680083F834207B68DB6B002B03D07B68DB6B31
:10387800786898477B685B6D002B32D07B685B6DFE
:1038880003F00103002B22D07B68052283F8352042
:103898007B681B681A687B681B6822F001021A6043
:1038A800BB680133BB607A699A4207D37B681B689F
:1038B8001B6803F00103002BF2D100E000BF7B6816
:1038C800012283F835207B68002283F834207B6846
:1038D800DB6C002B05D07B68DB6C7868984700E0D0
:1038E80000BF1837BD4680BD80B483B000AF786094
:1038F8007B6893F83530DBB218460C37BD465DF867
:10390800047B704780B483B000AF78607B685B6DE0
:1039180018460C37BD465DF8047B704780B485B007
:1039280000AFF860B9607A603B60FB681B681A6892
:10393800FB681B6822F480221A60FB681B683A68DF
:103948005A60FB689B68402B08D1FB681B687A6843
:103958009A60FB681B68BA68DA6007E0FB681B6856
:10396800BA689A60FB681B687A68DA6000BF143727
:10397800BD465DF8047B704780B485B000AF7860C1
:103988007B681B68DBB2103B144AA2FB03231B09AC
:10399800FB60134AFB6813441B781A467B68DA6598
:1039A800FB68032B09D97B681B6823F47F7323F01A
:1039B80003031A1D7B689A6507E07B681B6823F47C
:1039C8007F7323F003037A6893657B689B6D1846C1
:1039D8001437BD465DF8047B704700BFABAAAAAA9E
:1039E80044E1000880B485B000AF78600023FB7321
:1039F8007B689B6ABB607B689B69002B1FD1BB6897
:103A0800032B56D801A252F823F000BF253A00082C
:103A1800373A0008253A0008BB3A00087B68DB6A99
:103A280003F08073002B46D00123FB7343E07B68CF
:103A3800DB6AB3F1C07F40D10123FB733DE07B68B3
:103A48009B69B3F5005F21D1BB68032B37D801A26E
:103A580052F823F06D3A0008733A00086D3A0008EE
:103A6800853A00080123FB7330E07B68DB6A03F0CA
:103A78008073002B25D00123FB7322E07B68DB6A6F
:103A8800B3F1C07F1FD10123FB731CE0BB68022B7D
:103A980003D9BB68032B03D018E00123FB7315E09F
:103AA8007B68DB6A03F08073002B0ED00123FB7365
:103AB8000BE000BF0AE000BF08E000BF06E000BF5F
:103AC80004E000BF02E000BF00E000BFFB7B184637
:103AD8001437BD465DF8047B704700BF80B489B0D9
:103AE80000AF7860396000237B6100233B610023CD
:103AF800BB610023FB6159E10122FB6902FA03F370
:103B08007B613B681B687A6913403B613A697B6952
:103B18009A4240F048813B685B6803F00303012B3D
:103B280005D03B685B6803F00303022B30D17B6848
:103B38009B68BB61FB695B00032202FA03F3DB436A
:103B4800BA691340BB613B68DA68FB695B0002FA3B
:103B580003F3BA691343BB617B68BA699A607B68EF
:103B68005B68BB610122FB6902FA03F3DB43BA69B4
:103B78001340BB613B685B681B0903F00102FB69EA
:103B880002FA03F3BA691343BB617B68BA695A60E6
:103B98003B685B6803F00303032B17D07B68DB6883
:103BA800BB61FB695B00032202FA03F3DB43BA69DA
:103BB8001340BB613B689A68FB695B0002FA03F338
:103BC800BA691343BB617B68BA69DA603B685B68B2
:103BD80003F00303022B23D1FB69DA087B68083260
:103BE80053F82230BB61FB6903F007039B000F22E7
:103BF80002FA03F3DB43BA691340BB613B681A69F5
:103C0800FB6903F007039B0002FA03F3BA69134345
:103C1800BB61FB69DA087B680832B96943F822108E
:103C28007B681B68BB61FB695B00032202FA03F334
:103C3800DB43BA691340BB613B685B6803F003026E
:103C4800FB695B0002FA03F3BA691343BB617B6843
:103C5800BA691A603B685B6803F44033002B00F0D4
:103C6800A2800023FB60574B5B6C564A43F48043A9
:103C78005364544B5B6C03F48043FB60FB68524A0B
:103C8800FB699B08023352F82330BB61FB6903F0E0
:103C980003039B000F2202FA03F3DB43BA691340C4
:103CA800BB617B68494A934219D07B68484A934272
:103CB80013D07B68474A93420DD07B68464A9342AB
:103CC80007D07B68454A934201D1042308E00723C3
:103CD80006E0032304E0022302E0012300E00023BE
:103CE800FA6902F0030292009340BA691343BB6178
:103CF8003549FB699B080233BA6941F82320384BE0
:103D08009B68BB613B69DB43BA691340BB613B6895
:103D18005B6803F48013002B03D0BA693B69134333
:103D2800BB612F4ABB6993602D4BDB68BB613B6964
:103D3800DB43BA691340BB613B685B6803F400135B
:103D4800002B03D0BA693B691343BB61244ABB69A2
:103D5800D360234B5B68BB613B69DB43BA691340A3
:103D6800BB613B685B6803F40033002B03D0BA697E
:103D78003B691343BB611A4ABB695360184B1B6804
:103D8800BB613B69DB43BA691340BB613B685B6855
:103D980003F48033002B03D0BA693B691343BB613A
:103DA8000F4ABB691360FB690133FB61FB690F2B89
:103DB8007FF6A2AE00BF00BF2437BD465DF8047B86
:103DC800704700BF00380240003801400000024040
:103DD8000004024000080240000C024000100240AB
:103DE800003C014080B483B000AF78600B467B8014
:103DF80013467B707B78002B03D07A887B689A61A6
:103E080003E07B881A047B689A6100BF0C37BD46C3
:103E18005DF8047B704780B485B000AF78600B46CE
:103E28007B807B685B69FB607A88FB6813401A04B7
:103E3800FB68D9437B880B401A437B689A6100BFB3
:103E48001437BD465DF8047B7047000080B584B028
:103E580000AF78607B68002B01D101232BE17B68E0
:103E680093F83D30DBB2002B06D17B68002283F843
:103E78003C207868FEF78CF97B68242283F83D2083
:103E88007B681B681A687B681B6822F001021A604D
:103E98007B681B681A687B681B6842F400421A60DA
:103EA8007B681B681A687B681B6822F400421A60EA
:103EB80005F0F6F8F8607B685B68814A934207D89A
:103EC800FB68804A934294BF01230023DBB206E0DB
:103ED800FB687D4A934294BF01230023DBB2002B89
:103EE80001D00123E7E0FB68784AA2FB03239B0C7F
:103EF800BB607B681B685B6823F03F017B681B68BD
:103F0800BA680A435A607B681B681B6A23F03F0142
:103F18007B685B686A4A934202D8BB68013309E050
:103F2800BB684FF4967202FB03F3694AA2FB0323B2
:103F38009B0901337A6812680B4313627B681B681C
:103F4800DB6923F44F4222F0FF027B685B685C491F
:103F58008B4219D8FB68591E7B685B685B00B1FB14
:103F6800F3F3591C40F6FC730B40002B0AD0FB6896
:103F7800591E7B685B685B00B1FBF3F30133C3F345
:103F88000B0351E004234FE07B689B68002B11D1A1
:103F9800FB68581E7B6859680B465B000B44B0FBF6
:103FA800F3F30133C3F30B03002B0CBF01230023EE
:103FB800DBB212E0FB68581E7B6859680B469B0011
:103FC8000B4499000B44B0FBF3F30133C3F30B0329
:103FD800002B0CBF01230023DBB2002B01D00123EF
:103FE80022E07B689B68002B0ED1FB68581E7B681B
:103FF80059680B465B000B44B0FBF3F30133C3F382
:104008000B0343F400430FE0FB68581E7B685968B4
:104018000B469B000B4499000B44B0FBF3F30133B0
:10402800C3F30B0343F44043796809681343CB6136
:104038007B681B681B6823F0C0017B68DA697B68B2
:104048001B6A1A437B681B680A431A607B681B68F3
:104058009B6823F4034323F0FF037A6811697A68A5
:10406800D26811437A6812680B4393607B681B68B7
:10407800DB6823F0FF017B685A697B689B691A43F8
:104088007B681B680A43DA607B681B681A687B6870
:104098001B6842F001021A607B6800221A647B6880
:1040A800202283F83D207B6800221A637B68002267
:1040B80083F83E20002318461037BD4680BD00BF58
:1040C800A08601007F841E00FF083D0083DE1B439D
:1040D800D34D621080B483B000AF78607B681B68F2
:1040E8005B6903F08003802B03D17B681B68002287
:1040F8001A6100BF0C37BD465DF8047B70470000AD
:1041080080B588B002AFF8607A601A460B467B81AA
:1041180013463B81FEF7D4FA7861FB6893F83D308B
:10412800DBB2202B40F0E0807B6900931923012249
:104138007049F86802F0AEFE0346002B01D0022356
:10414800D3E0FB6893F83C30012B01D10223CCE08B
:10415800FB68012283F83C20FB681B681B6803F09E
:104168000103012B07D0FB681B681A68FB681B68F2
:1041780042F001021A60FB681B681A68FB681B683A
:1041880022F400621A60FB68212283F83D20FB6854
:10419800102283F83E20FB6800221A64FB687A68C4
:1041A8005A62FB683A895A85FB685B8D9AB2FB684C
:1041B8001A85FB68504ADA6279897B693A6AF86835
:1041C80002F0A4FA0346002B01D001238DE000235E
:1041D8003B61FB681B685B693B61FB681B689B690B
:1041E8003B613B6966E07A69396AF86802F06CFFFE
:1041F8000346002B0DD0FB681B6C042B07D1FB6812
:104208001B681A68FB681B6842F400721A60012375
:104218006BE0FB685B6A1A78FB681B681A61FB68CD
:104228005B6A5A1CFB685A62FB685B8D9BB2013B58
:104238009AB2FB685A85FB681B8D013B9AB2FB68F2
:104248001A85FB681B685B6903F00403042B1BD108
:10425800FB681B8D002B17D0FB685B6A1A78FB681C
:104268001B681A61FB685B6A5A1CFB685A62FB6828
:104278005B8D9BB2013B9AB2FB685A85FB681B8D2C
:10428800013B9AB2FB681A857A69396AF86802F0C4
:1042980063FF0346002B0DD0FB681B6C042B07D172
:1042A800FB681B681A68FB681B6842F400721A6096
:1042B80001231AE0FB681B8D002B94D1FB681B6857
:1042C8001A68FB681B6842F400721A60FB682022B7
:1042D80083F83D20FB68002283F83E20FB6800221B
:1042E80083F83C20002300E0022318461837BD4617
:1042F80080BD00BF020010000000FFFF80B588B03D
:1043080002AFF860084611461A4603467B810B4601
:104318003B811346FB80FEF7D3F97861FB6893F87D
:104328003D30DBB2202B40F0D9807B690093192304
:1043380001226D49F86802F0ADFD0346002B01D05B
:104348000223CCE0FB6893F83C30012B01D1022317
:10435800C5E0FB68012283F83C20FB681B681B68EA
:1043680003F00103012B07D0FB681B681A68FB6880
:104378001B6842F001021A60FB681B681A68FB6838
:104388001B6822F400621A60FB68212283F83D2032
:10439800FB68402283F83E20FB6800221A64FB6811
:1043A8003A6A5A62FB68BA8C5A85FB685B8D9AB286
:1043B800FB681A85FB684D4ADA62F8883A89798978
:1043C8007B690193BB6A00930346F86802F020FA00
:1043D8000346002B52D0012381E07A69B96AF86854
:1043E80002F072FE0346002B0DD0FB681B6C042BF9
:1043F80007D1FB681B681A68FB681B6842F40072E7
:104408001A6001236BE0FB685B6A1A78FB681B681B
:104418001A61FB685B6A5A1CFB685A62FB681B8D51
:10442800013B9AB2FB681A85FB685B8D9BB2013B26
:104438009AB2FB685A85FB681B685B6903F0040342
:10444800042B1BD1FB681B8D002B17D0FB685B6A04
:104458001A78FB681B681A61FB685B6A5A1CFB6860
:104468005A62FB681B8D013B9AB2FB681A85FB6890
:104478005B8D9BB2013B9AB2FB685A85FB681B8D2A
:10448800002BAAD17A69B96AF86802F065FE03467A
:10449800002B0DD0FB681B6C042B07D1FB681B6835
:1044A8001A68FB681B6842F400721A60012316E060
:1044B800FB681B681A68FB681B6842F400721A6084
:1044C800FB68202283F83D20FB68002283F83E2009
:1044D800FB68002283F83C20002300E002231846F2
:1044E8001837BD4680BD00BF020010000000FFFF66
:1044F80080B58CB002AFF860084611461A460346EC
:104508007B810B463B811346FB80FEF7D9F8786226
:10451800FB6893F83D30DBB2202B40F014827B6AB5
:104528000093192301227B49F86802F0B3FC034683
:10453800002B01D0022307E2FB6893F83C30012BE3
:1045480001D1022300E2FB68012283F83C20FB68CA
:104558001B681B6803F00103012B07D0FB681B686D
:104568001A68FB681B6842F001021A60FB681B6846
:104578001A68FB681B6822F400621A60FB68222232
:1045880083F83D20FB68402283F83E20FB68002228
:104598001A64FB683A6B5A62FB68BA8E5A85FB68E4
:1045A8005B8D9AB2FB681A85FB685B4ADA62F88809
:1045B8003A8979897B6A0193BB6B00930346F86853
:1045C80002F0BCF90346002B01D00123BCE1FB68D3
:1045D8001B8D002B13D100233B62FB681B685B69B2
:1045E8003B62FB681B689B693B623B6AFB681B6814
:1045F8001A68FB681B6842F400721A6090E1FB6855
:104608001B8D012B1BD1FB681B681A68FB681B6894
:1046180022F480621A600023FB61FB681B685B69F7
:10462800FB61FB681B689B69FB61FB69FB681B6896
:104638001A68FB681B6842F400721A6070E1FB6834
:104648001B8D022B1BD1FB681B681A68FB681B6853
:1046580022F480621A60FB681B681A68FB681B6892
:1046680042F400621A600023BB61FB681B685B6947
:10467800BB61FB681B689B69BB61BB6950E1002398
:104688007B61FB681B685B697B61FB681B689B69D6
:104698007B617B6944E1FB681B8D032B00F2F18091
:1046A800FB681B8D012B23D17A6AB96BF86802F07D
:1046B800CDFD0346002B01D0012345E1FB681B68B3
:1046C8001A69FB685B6AD2B21A70FB685B6A5A1C8B
:1046D800FB685A62FB681B8D013B9AB2FB681A851E
:1046E800FB685B8D9BB2013B9AB2FB685A8517E168
:1046F800FB681B8D022B4ED17B6A0093BB6B00229B
:104708000649F86802F0C6FB0346002B08D00123CF
:104718001AE100BF020010000000FFFF04000100C2
:10472800FB681B681A68FB681B6842F400721A6011
:10473800FB681B681A69FB685B6AD2B21A70FB686F
:104748005B6A5A1CFB685A62FB681B8D013B9AB274
:10475800FB681A85FB685B8D9BB2013B9AB2FB68CC
:104768005A85FB681B681A69FB685B6AD2B21A70C3
:10477800FB685B6A5A1CFB685A62FB681B8D013B2D
:104788009AB2FB681A85FB685B8D9BB2013B9AB2B3
:10479800FB685A85C4E07B6A0093BB6B00226C49B6
:1047A800F86802F077FB0346002B01D00123CBE029
:1047B800FB681B681A68FB681B6822F480621A6031
:1047C800FB681B681A69FB685B6AD2B21A70FB68DF
:1047D8005B6A5A1CFB685A62FB681B8D013B9AB2E4
:1047E800FB681A85FB685B8D9BB2013B9AB2FB683C
:1047F8005A857B6A0093BB6B00225549F86802F022
:1048080049FB0346002B01D001239DE0FB681B6890
:104818001A68FB681B6842F400721A60FB681B6820
:104828001A69FB685B6AD2B21A70FB685B6A5A1C29
:10483800FB685A62FB681B8D013B9AB2FB681A85BC
:10484800FB685B8D9BB2013B9AB2FB685A85FB689B
:104858001B681A69FB685B6AD2B21A70FB685B6AEC
:104868005A1CFB685A62FB681B8D013B9AB2FB68B5
:104878001A85FB685B8D9BB2013B9AB2FB685A852F
:104888004EE07A6AB96BF86802F0E0FC0346002B48
:1048980001D0012358E0FB681B681A69FB685B6A52
:1048A800D2B21A70FB685B6A5A1CFB685A62FB68D2
:1048B8001B8D013B9AB2FB681A85FB685B8D9BB226
:1048C800013B9AB2FB685A85FB681B685B6903F079
:1048D8000403042B24D1FB681B8D032B07D1FB6831
:1048E8001B681A68FB681B6822F480621A60FB6800
:1048F8001B681A69FB685B6AD2B21A70FB685B6A4C
:104908005A1CFB685A62FB681B8D013B9AB2FB6814
:104918001A85FB685B8D9BB2013B9AB2FB685A858E
:10492800FB681B8D002B7FF4B6AEFB68202283F852
:104938003D20FB68002283F83E20FB68002283F8B4
:104948003C20002300E0022318462837BD4680BDDE
:104958000400010080B58AB002AFF860084611462D
:104968001A4603467B810B463B811346FB80002396
:104978007B61FDF7A5FEF861FB6893F83D30DBB27B
:10498800202B40F036819D4B1B68DB089C4AA2FB1C
:1049980003231A0A13469B0013449A0013447B61AD
:1049A8007B69013B7B617B69002B12D1FB6800228C
:1049B8001A63FB68202283F83D20FB68002283F8F5
:1049C8003E20FB681B6C43F02002FB681A6402233C
:1049D80010E1FB681B689B6903F00203022BDFD020
:1049E800FB6893F83C30012B01D1022302E1FB68FC
:1049F800012283F83C20FB681B681B6803F0010355
:104A0800012B07D0FB681B681A68FB681B6842F01B
:104A180001021A60FB681B681A68FB681B6822F4AD
:104A280000621A60FB68212283F83D20FB6840225F
:104A380083F83E20FB6800221A64FB68BA6A5A624F
:104A4800FB68BA8D5A85FB685B8D9AB2FB681A853C
:104A5800FB686C4ADA627A89FB685A643A89FB68AF
:104A68009A64FA88FB68DA64FB6800221A65FB68B6
:104A78001B8D002B00F0A980FB685B6B002B2AD0F4
:104A8800FB685B6B604ADA63FB685B6B5F4ADA64FE
:104A9800FB685B6B00221A64FB685B6B00225A643C
:104AA800FB685B6B00229A64FB685B6B00221A65EB
:104AB800FB68586BFB685B6A1946FB681B68103318
:104AC8001A46FB681B8DFEF70BFD0346FB76FB7E43
:104AD800002B66D113E0FB68202283F83D20FB6899
:104AE800002283F83E20FB681B6C43F08002FB68C1
:104AF8001A64FB68002283F83C2001237AE0F888D6
:104B08003A897989FB690193232300930346F8685E
:104B180001F07EFE0346002B22D0FB685B6B184633
:104B2800FEF736FD0346FB76FB685B6B0022DA6313
:104B3800FB681B681A68FB681B6822F480621A60AD
:104B4800FB6800221A85FB6800225A85FB681B68EF
:104B58001A68FB681B6822F001021A60012349E009
:104B680000233B61FB681B685B693B61FB681B6852
:104B78009B693B613B69FB68002283F83C20FB682A
:104B88001B685A68FB681B6842F480725A60FB68AD
:104B98001B685A68FB681B6842F400625A6000236D
:104BA80028E0FB68202283F83D20FB68002283F878
:104BB8003E20FB681B6C43F01002FB681A64FB681C
:104BC800002283F83C20012314E0FB68202283F8AC
:104BD8003D20FB68002283F83E20FB681B6C43F0F5
:104BE8004002FB681A64FB68002283F83C2001231A
:104BF80000E0022318462037BD4680BD040000208F
:104C080089B5F8140000FFFF156B0008D36C000885
:104C180080B58CB002AFF860084611461A460346C4
:104C28007B810B463B811346FB80FDF749FD78628B
:104C38000023FB61FB6893F83D30DBB2202B40F08A
:104C48007281934B1B68DB08924AA2FB03231A0A62
:104C580013469B0013449A001344FB61FB69013B14
:104C6800FB61FB69002B12D1FB6800221A63FB6809
:104C7800202283F83D20FB68002283F83E20FB6851
:104C88001B6C43F02002FB681A6402234CE1FB68AA
:104C98001B689B6903F00203022BDFD0FB6893F8C3
:104CA8003C30012B01D102233EE1FB68012283F84D
:104CB8003C20FB681B681B6803F00103012B07D02D
:104CC800FB681B681A68FB681B6842F001021A60DF
:104CD800FB681B681A68FB681B6822F400621A608C
:104CE800FB68222283F83D20FB68402283F83E209F
:104CF800FB6800221A64FB683A6B5A62FB68BA8E3A
:104D08005A85FB685B8D9AB2FB681A85FB68624A14
:104D1800DA627A89FB685A643A89FB689A64FA8885
:104D2800FB68DA64FB6800221A65FB681B8D002BA0
:104D380000F0CC80FB689B6B002B2DD0FB689B6B35
:104D4800564ADA63FB689B6B554ADA64FB689B6BCF
:104D580000221A64FB689B6B00225A64FB689B6BF9
:104D680000229A64FB689B6B00221A65FB68986BAB
:104D7800FB681B6810331946FB685B6A1A46FB68B8
:104D88001B8DFEF7ADFB034687F8233097F82330D9
:104D9800002B40F0878013E0FB68202283F83D2039
:104DA800FB68002283F83E20FB681B6C43F08002FE
:104DB800FB681A64FB68002283F83C200123B3E0F7
:104DC800F8883A8979897B6A0193232300930346FB
:104DD800F86801F0B3FD0346002B23D0FB689B6BFA
:104DE8001846FEF7D5FB034687F82330FB689B6B14
:104DF8000022DA63FB681B681A68FB681B6822F4E8
:104E080080621A60FB6800221A85FB6800225A85B6
:104E1800FB681B681A68FB681B6822F001021A60AD
:104E2800012381E0FB681B8D012B08D1FB681B68FF
:104E38001A68FB681B6822F480621A6007E0FB6846
:104E48001B685A68FB681B6842F480525A6000234A
:104E5800BB61FB681B685B69BB61FB681B689B697E
:104E6800BB61BB69FB68002283F83C20FB681B68B8
:104E78005A68FB681B6842F480725A60FB681B68BA
:104E88005A68FB681B6842F400625A6049E000BF38
:104E98000400002089B5F8140000FFFF156B000816
:104EA800D36C0008FB68202283F83D20FB680022B1
:104EB80083F83E20FB681B6C43F01002FB681A6401
:104EC800FB68002283F83C2001232DE0F8883A890A
:104ED80079897B6A0193232300930346F86801F0DC
:104EE8002DFD0346002B01D001231DE000237B612B
:104EF800FB681B685B697B61FB681B689B697B615E
:104F08007B69FB681B681A68FB681B6842F40072BF
:104F18001A60FB68202283F83D20FB68002283F892
:104F28003C20002300E0022318462837BD4680BDF8
:104F380080B588B000AF78600023BB617B681B68D0
:104F48005B687B617B68DB6A3B617B6893F83E301A
:104F5800FB737B6893F83D30BB73FB7B102B03D04E
:104F6800FB7B402B40F0C1807B681B689B69BB6161
:104F78007B681B685B69FB61FB6903F00103002B1D
:104F88000DD13B69B3F52A0F03D03B69B3F12A4F22
:104F980001D1012300E00023012B00F03281FB69DD
:104FA80003F00103002B0CD07B695B0A03F00103BB
:104FB800002B06D0786802F0D5F9786800F087FDF4
:104FC80092E0FB69DB0803F00103002B09D07B6941
:104FD8005B0A03F00103002B03D0786800F0FDFDA5
:104FE80082E0FB695B0803F00103002B09D07B69B1
:104FF8005B0A03F00103002B03D0786800F017FE6A
:1050080072E0BB699B0803F00103002B3BD07B686F
:105018001B685B6803F40063B3F5006F00F0F3806E
:10502800FB69DB0903F00103002B0FD07B699B0AA6
:1050380003F00103002B09D0FB699B0803F001036F
:10504800002B03D1786800F0DFF94DE0FB699B087D
:1050580003F00103002B00F0D6807B695B0A03F0A4
:105068000103002B00F0CF80BB7B212B03D1786894
:1050780000F066FAC7E0FB7B402B40F0C4807868FC
:1050880000F0D4FABFE07B681B685B6803F4006338
:10509800B3F5006F00F0B780FB699B0903F00103CB
:1050A800002B0FD07B699B0A03F00103002B09D06A
:1050B800FB699B0803F00103002B03D1786800F01B
:1050C8004DFB11E0FB699B0803F00103002B00F086
:1050D8009A807B695B0A03F00103002B00F0938040
:1050E800786800F003FC8EE08DE07B681B6C002B79
:1050F80004D07B681B685B69FB6107E07B681B6801
:105108009B69BB617B681B685B69FB61FB695B082A
:1051180003F00103002B12D07B695B0A03F0010343
:10512800002B0CD07B681B6C002B03D07B681B68A2
:105138009B69BB61B969786800F0C8FF66E0FB69E4
:105148001B0903F00103002B09D07B695B0A03F0FC
:105158000103002B03D0786801F002F856E0BB7B0E
:10516800212B02D0BB7B292B25D1FB69DB0903F05E
:105178000103002B0FD07B699B0A03F00103002B6E
:1051880009D0FB699B0803F00103002B03D1786861
:1051980000F0DEFE39E0FB699B0803F00103002BF9
:1051A80033D07B695B0A03F00103002B2DD07868AC
:1051B80000F00BFF29E0FB699B0903F00103002BBA
:1051C8000FD07B699B0A03F00103002B09D0FB6910
:1051D8009B0803F00103002B03D1786800F016FF49
:1051E80014E0FB699B0803F00103002B0ED07B69D8
:1051F8005B0A03F00103002B08D0786800F044FF35
:1052080004E000BF02E000BF00E000BF2037BD4659
:1052180080BD80B58AB000AF78607B681B685B6929
:105228003B627B681B685B68FB6100237B627B6871
:1052380093F83E30FB763B6A1B0A03F00103002B10
:105248000ED0FB691B0A03F00103002B08D07B6A10
:1052580043F001037B627B681B686FF480725A61BC
:105268003B6A5B0A03F00103002B0ED0FB691B0AA3
:1052780003F00103002B08D07B6A43F002037B6232
:105288007B681B686FF400725A613B6A9B0A03F0E3
:105298000103002B3FD0FB691B0A03F00103002B1D
:1052A80039D0FB7EBB767B685B8D9BB27B617B686C
:1052B80093F83D30FB747B681B6BFB60BB7E202B37
:1052C80012D17B69002B0FD1FB7C212B08D0FB7CF2
:1052D800292B05D0FB7C282B06D1FB68212B03D179
:1052E800786801F06DF816E07B681B686FF48062DF
:1052F8005A617B6A43F004037B62FB7E102B02D069
:10530800FB7E402B07D17B681B681A687B681B688B
:1053180042F400721A603B6ADB0A03F00103002BB7
:105328000ED0FB691B0A03F00103002B08D07B6A2F
:1053380043F008037B627B681B686FF400625A6164
:105348007B6A002B08D07B681A6C7B6A1A437B68DF
:105358001A64786801F0A8F800BF2837BD4680BDF8
:1053680080B483B000AF786000BF0C37BD465DF8ED
:10537800047B704780B483B000AF786000BF0C37FF
:10538800BD465DF8047B704780B483B000AF786099
:1053980000BF0C37BD465DF8047B704780B483B00E
:1053A80000AF786000BF0C37BD465DF8047B7047DE
:1053B80080B483B000AF78600B46FB7013463B8027
:1053C80000BF0C37BD465DF8047B704780B483B0DE
:1053D80000AF786000BF0C37BD465DF8047B7047AE
:1053E80080B483B000AF786000BF0C37BD465DF86D
:1053F800047B704780B483B000AF786000BF0C377F
:10540800BD465DF8047B704780B584B000AF786016
:105418007B6893F83D30FB737B6893F83E30BB7331
:105428007B68DB6ABB607B681B8D002B50D1FB7BE4
:10543800212B4DD1BB68082B1DD0BB68202B1AD05F
:10544800BB6813F5803F16D07B681B685A687B6879
:105458001B6822F4E0625A607B6811221A637B6839
:10546800002283F83E207B68202283F83D2078685C
:10547800FFF776FF60E07B681B685A687B681B68EB
:1054880022F4E0625A607B681B681A687B681B68B4
:1054980042F400721A607B6800221A637B6820223B
:1054A80083F83D207B6893F83E30DBB2402B07D170
:1054B8007B68002283F83E207868FBF757F83BE0CA
:1054C8007B68002283F83E207868FFF749FF33E0C5
:1054D800FB7B212B05D0BB7B402B2DD1FB7B222BCB
:1054E8002AD17B685B8D9BB2002B08D17B681B6837
:1054F8005A687B681B6822F480625A601CE07B68EB
:1055080093F83E30DBB2402B03D1786800F08EF878
:1055180012E07B685B6A1A787B681B681A617B6893
:105528005B6A5A1C7B685A627B685B8D9BB2013B45
:105538009AB27B685A85FFE700BF1037BD4680BD29
:1055480080B584B000AF78607B68DB6AFB607B68FD
:1055580093F83D30DBB2212B64D17B685B8D9BB225
:10556800002B12D07B685B6A1A787B681B681A610B
:105578007B685B6A5A1C7B685A627B685B8D9BB24E
:10558800013B9AB27B685A854CE0FB68082B1DD01A
:10559800FB68202B1AD0FB6813F5803F16D07B6878
:1055A8001B685A687B681B6822F4E0625A607B6853
:1055B80011221A637B68002283F83E207B68202230
:1055C80083F83D207868FFF7CBFE2BE07B681B68EB
:1055D8005A687B681B6822F4E0625A607B681B6823
:1055E8001A687B681B6842F400721A607B680022A4
:1055F8001A637B68202283F83D207B6893F83E304D
:10560800DBB2402B07D17B68002283F83E20786804
:10561800FAF7ACFF06E07B68002283F83E20786842
:10562800FFF79EFE00BF1037BD4680BD80B584B031
:1056380000AF78607B6893F83D30FB737B681B6D27
:10564800002B1DD17B68DB6C012B0BD17B689B6C1D
:10565800DAB27B681B681A617B681B6D9A1C7B68D1
:105668001A6577E07B689B6C9BB21B12DAB27B6889
:105678001B681A617B681B6D5A1C7B681A6569E098
:105688007B681B6D012B0BD17B689B6CDAB27B6846
:105698001B681A617B681B6D5A1C7B681A6559E088
:1056A8007B681B6D022B52D1FB7B222B0DD17B68B3
:1056B8001B681A687B681B6842F480721A607B68F2
:1056C8001B6D5A1C7B681A6544E07B685B8D9BB236
:1056D800002B15D0FB7B212B12D17B685B6A1A78D3
:1056E8007B681B681A617B685B6A5A1C7B685A6214
:1056F8007B685B8D9BB2013B9AB27B685A8529E037
:105708007B685B8D9BB2002B24D1FB7B212B21D1A5
:105718007B681B685A687B681B6822F4E0625A60E1
:105728007B681B681A687B681B6842F400721A6001
:105738007B6800221A637B68202283F83D207B68FF
:10574800002283F83E207868FAF710FF02E07868B4
:10575800FEF7C0FC00BF1037BD4680BD80B584B0E1
:1057680000AF78607B6893F83D30DBB2222B40F0C5
:10577800B9807B68DB6AFB607B685B8D9BB2BB6032
:10578800BB68032B21D97B681B681A697B685B6A35
:10579800D2B21A707B685B6A5A1C7B685A627B6853
:1057A8005B8D9BB2013B9AB27B685A857B685B8DA7
:1057B8009BB2032B40F096807B681B685A687B6815
:1057C8001B6822F480625A608CE07B68DB6A022BDB
:1057D8007FD0BB68012B02D0BB68002B79D17868D9
:1057E80001F002FD0346002B4CD17B681B681A6848
:1057F8007B681B6822F480621A607B681B685A68A1
:105808007B681B6822F4E0625A607B681B681A692F
:105818007B685B6AD2B21A707B685B6A5A1C7B68C9
:105828005A627B685B8D9BB2013B9AB27B685A8552
:105838007B68202283F83D207B6893F83E30DBB2FA
:10584800402B0AD17B68002283F83E207B68002227
:105858001A637868FAF79AFE44E07B68002283F8B6
:105868003E20FB68082B02D0FB68202B03D17B6805
:1058780000221A6302E07B6812221A637868FFF735
:1058880079FD2FE07B681B685A687B681B6822F4E7
:10589800E0625A607B681B681A697B685B6AD2B2EF
:1058A8001A707B685B6A5A1C7B685A627B685B8DDE
:1058B8009BB2013B9AB27B685A857B68202283F8A9
:1058C8003D207B68002283F83E207868FFF788FD3A
:1058D80008E07B681B685A687B681B6822F4806252
:1058E8005A60FFE700BF1037BD4680BD80B584B061
:1058F80000AF78607B68DB6AFB607B685B8D9BB27E
:10590800042B1BD17B681B685A687B681B6822F4D0
:1059180080625A607B681B681A697B685B6AD2B2CE
:105928001A707B685B6A5A1C7B685A627B685B8D5D
:105938009BB2013B9AB27B685A85C4E07B685B8D59
:105948009BB2032B29D17B681B685A687B681B684C
:1059580022F480625A60FB68042B0AD0FB68022B91
:1059680007D07B681B681A687B681B6822F4806212
:105978001A607B681B681A697B685B6AD2B21A7006
:105988007B685B6A5A1C7B685A627B685B8D9BB23A
:10599800013B9AB27B685A8595E07B685B8D9BB228
:1059A800022B7DD1FB68012B02D0FB68102B08D19C
:1059B8007B681B681A687B681B6822F480621A601F
:1059C80016E0FB68042B02D0FB68022B08D17B6829
:1059D8001B681A687B681B6842F480621A6007E0DB
:1059E8007B681B681A687B681B6842F400721A603F
:1059F8007B681B681A697B685B6AD2B21A707B681D
:105A08005B6A5A1C7B685A627B685B8D9BB2013B60
:105A18009AB27B685A857B681B681A697B685B6ADF
:105A2800D2B21A707B685B6A5A1C7B685A627B68C0
:105A38005B8D9BB2013B9AB27B685A857B681B6879
:105A48005A687B681B6822F440725A607B6820227F
:105A580083F83D207B6893F83E30DBB2402B0AD1B7
:105A68007B68002283F83E207B6800221A637868EE
:105A7800FAF78CFD27E07B68002283F83E20FB685C
:105A8800082B02D0FB68202B03D17B6800221A6305
:105A980002E07B6812221A637868FFF76BFC12E059
:105AA8007B681B681A697B685B6AD2B21A707B686C
:105AB8005B6A5A1C7B685A627B685B8D9BB2013BB0
:105AC8009AB27B685A8500BF1037BD4680BD80B446
