:020000020000FC
:100000000C942B0000FF5580AA0000000000BEBA2F
:10001000DEFA00000080000000401895189500E806
:1000200004B900E405B908958DE99FE00197F1F75F
:10003000000000000895F198002700931B02009330
:100040001C02089550E843B1452745B9F1990E9433
:100050001B000C943A00F8940E940F0000E00093FB
:100060001B0200931C0204E600931D0200E00093B3
:100070001E022F9A0E941400A0911B02B0911C0234
:100080001196A0931B02B0931C0204E610E00A171D
:100090001B07C1F2F19A08EE13E00A171B0791F251
:0600A000F1980C943A00F7
:00000001FF
