:1000000078C0000095C0000093C0000091C00000BF
:100010008FC000008DC000008BC0000089C00000B0
:1000200087C0000085C0000083C0000081C00000C0
:100030007FC000007DC000007BC0000079C00000D0
:1000400077C0000075C0000073C0000071C00000E0
:100050006FC000006DC000006BC0000069C00000F0
:1000600067C000003EC3000063C0000061C0000024
:100070005FC000005DC000005BC0000059C0000010
:1000800057C0000055C0000053C0000051C0000020
:100090004FC000004DC000004BC0000049C0000030
:1000A00047C000007BC300006AC3000045C30000D6
:1000B0003FC000003DC000003BC0000039C0000050
:1000C00037C0000035C0000033C0000031C0000060
:1000D0002FC000002DC000002BC0000029C0000070
:1000E00027C000008C019A01B201C701DC01EA01BE
:1000F0000F0211241FBECFEFD1E2DEBFCDBF00E063
:100100000CBF12E0A0E0B2E0E6E1F8E000E00BBFD7
:1001100002C007900D92A230B107D9F724E0A2E007
:10012000B2E001C01D92A532B207E1F79CD271C3C3
:1001300067CFFC011582A081B181838191E0980F86
:100140009383A80FB11D85E58C93848193819823B7
:10015000A081B18181E0890F8383A90FB11D8EE455
:100160008C93848193819823A081B18181E0890F50
:100170008383A90FB11D85E48C9384819381982397
:10018000A081B18181E0890F8383A90FB11D82E530
:100190008C93848193819823A081B18181E0890F20
:1001A0008383A90FB11D4F5F4C9384819381982362
:1001B000A081B18181E0890F8383A90FB11D8AE3FA
:1001C0008C93848193819823A081B18181E0890FF0
:1001D0008383A90FB11D6C939481838198239383AA
:1001E00095814927642786E3862785830895FC0146
:1001F000A081B181838191E0980F9383A80FB11DF5
:100200006C9394818381982393838581862785834A
:1002100008950F931F93CF93DF93EB01DC01ED91D2
:10022000FC91119714968C91E80FF11D6081683A4A
:1002300070F4643A08F058C0633AA0F5603A08F0E8
:1002400053C06031E9F0623109F045C04DC06E3DE8
:1002500009F44AC020F46A3A09F03DC045C0603F45
:1002600021F0613F09F037C03FC042E060EFCE01AE
:1002700060DF6DE0CE01BBDF6D81CE01B8DF34C041
:100280000EE113E080910303F801808342E060E116
:10029000CE014FDFD8016C91CE01A9DF6D81CE0177
:1002A000A6DF22C080911C0390911D030EE113E094
:1002B000F8019183808343E063EACE013ADFD801FD
:1002C0006C91CE0194DFF8016181CE0190DF6D81E8
:1002D000CE018DDF09C042E0CE012BDF6FEFCE01F2
:1002E00086DF6D81CE0183DFDF91CF911F910F916A
:1002F0000895DC0113962C911397C9C018964C9160
:10030000189750E04730510508F0B3C0FA0188272C
:10031000EE58FF4F8F4F75C2ED91FC911197E90F89
:10032000F11D8081853509F0A7C081E018968C9376
:100330001897A2C0ED91FC911197E90FF11D8081F2
:100340008E3429F482E018968C93189795C08535E1
:1003500009F492C018961C921897915012969C938B
:1003600012978AC0ED91FC911197E90FF11D8081E0
:10037000853429F483E018968C9318977DC01896DD
:100380001C921897915012969C93129775C0ED91FC
:10039000FC911197E90FF11D8081823529F484E0E9
:1003A00018968C93189768C018961C9218979150BD
:1003B00012969C93129760C0ED91FC911197E90FF2
:1003C000F11D808117968C93179785E018968C9372
:1003D000189752C0ED91FC911197E90FF11D8081A2
:1003E0008A33A9F486E018968C9318979F5F159628
:1003F0008C911597982314969C93149717969C911B
:10040000179786E3892716968C93169735C018960A
:100410001C921897915012969C9312972DC0179684
:100420008C911797815017968C931797882371F0AA
:10043000ED91FC911197E90FF11D808116969C9129
:100440001697892716968C93169716C018961C92A5
:100450001897ED91FC911197E90FF11D9081169677
:100460008C911697981308C081E01A968C931A976E
:1004700003C018961C92189712968C9112978F5F52
:1004800015969C911597892312968C931297129624
:100490009C911297291332CF08950F931F93CF93F6
:1004A000DF938C01EB01FC018285882319F0128611
:1004B000C801AFDEF80192818381981711F0C8015D
:1004C00018DF8A819B81891791F09091C00095FF78
:1004D0000EC0E881F98191E0980F9A83E80FF11D31
:1004E00080818093C6008C819A8189238A83DF91E1
:1004F000CF911F910F91089580910202813071F088
:1005000028F0823059F18330B9F1089580911503B4
:1005100083FF4FC081E0809302020895809115030C
:1005200083FF47C085B1826085B98091A400909116
:10053000A50043969093A9008093A800809115038D
:10054000877F80931503E2E7F0E0808182608083FB
:10055000E1EAF0E08081806480830895299B29C0CE
:1005600085B18D7F85B9E2E7F0E08081806280838C
:1005700080818D7F80830895E8E1F3E020813181DF
:10058000828193818217930748F082819381208131
:100590003181821B930B958384830895E8E1F3E016
:1005A0008281938120813181821B930B01979583F6
:1005B0008483089582E884B9EAE0F1E080818B7F4A
:1005C000808380818E7F8083EBE0F1E084E0808314
:1005D00081E0808308951092A0008FE19EE49093C3
:1005E000AB008093AA0089B389BB84E0809372003A
:1005F00082EC8093A1001092A5001092A4000895AF
:100600001092C5008093C4008EEF8093C00088E9EB
:100610008093C10086E08093C2000895809101021A
:1006200081110AC080911503886080931503109290
:1006300002028AE08093010280910102815080933E
:10064000010280910002811103C084E080930002C6
:1006500080910002815080930002809115038E7F6B
:10066000809315030895E4E0F3E083E092E0918342
:1006700080831282138210868FEF8583EFE0F3E090
:1006800025E233E0318320831282138284838091B8
:10069000150388608093150384E690E090931D0312
:1006A00080931C03F89486DF96DF80E1A9DF7894BD
:1006B0006FE073E084E093E0F0DE1EDF80911503CD
:1006C00080FFF6CFABDF8091090184708093160321
:1006D000882329F080E885B910920303E9CF15B883
:1006E000E7CF1F920F920FB60F9211240BB60F9205
:1006F0008F939F93AF93BF93EF93FF93E4E0F3E067
:10070000A081B181838191E0980F9383A80FB11DDF
:100710008091C6008C938581938189238383FF9187
:10072000EF91BF91AF919F918F910F900BBE0F9062
:100730000FBE0F901F9018951F920F920FB60F9239
:1007400011240BB60F928F939F93EF93FF93EAEAD6
:10075000F0E080819181805E914B918380838091D4
:100760001503816080931503FF91EF919F918F9105
:100770000F900BBE0F900FBE0F901F9018951F92F9
:100780000F920FB60F9211248F9382E08093020292
:100790008F910F900FBE0F901F9018951F920F9280
:1007A0000FB60F9211240BB60F928F939F93EF9376
:1007B000FF938091A10086FF0EC08091A6009091CA
:1007C000A7009093190380931803E1EAF0E0808179
:1007D0008F7B80830BC08091A6009091A70090939F
:1007E0001B0380931A0383E080930202FF91EF9131
:1007F0009F918F910F900BBE0F900FBE0F901F9087
:100800001895EE0FFF1F881F8BBF0790F691E02D04
:060810001994F894FFCFDB
:02081600040AD2
:00000001FF
